:020000040800F2
:10000000501F0020451B0008911A0008931A000891
:10001000951A0008971A0008991A000800000000B5
:100020000000000000000000000000009B1A000813
:100030009D1A0008000000009F1A0008A11A00087D
:10004000611B0008651B0008691B0008A31A000853
:100050006D1B0008711B0008751B0008791B000848
:10006000000000007D1B0008811B0008851B0008A4
:10007000891B00088D1B0008911B00080000000070
:10008000951B0008991B0008000000009D1B00083C
:10009000A11B0008A51B0008A91B0008AD1B000838
:1000A000B11B0008B51B0008B91B0008BD1B0008E8
:1000B000C11B00080000000000000000000000005C
:1000C000C51B000800000000C91B00082DE9F64D03
:1000D00003B4C1F30A5040F2FF71884284B00CD1DE
:1000E00005980027000304BF0498002802D1059852
:1000F000002817D4DDE904010EE101280BDA04A879
:1001000000F050F9012806DB00F06EF922210160B1
:100110000020834900E1059A40F2FE3161F31E524E
:100120000592471A0598002808D500F05DF92121AD
:1001300001604FF0FF306FF00041EDE0DDE90401B8
:10014000784A794B00F056F909D2DDE90423002002
:100150004FF0804100F066F9CDE904017F1EDDE932
:1001600004230020714900F02FFADDE9042304463E
:100170000D4600206E4900F027FA02460B46204645
:10018000294600F095FA82468B4652465B4600F0BF
:1001900049F906468846674867493246434600F0B3
:1001A00041F9664A664B00F00FFA3246434600F0CA
:1001B00039F9644A644B00F007FA3246434600F0CE
:1001C00031F9624A624B00F0FFF93246434600F0D3
:1001D00029F9604A604B00F0F7F93246434600F0D7
:1001E00021F95E4A5E4B00F0EFF93246434600F0DB
:1001F00019F95C4A5C4B00F0E7F93246434600F0DF
:1002000011F902460B462046294600F07DFB524676
:100210005B4600F007F90646884638B200F034FC29
:10022000074607988B46C8B9504851493A465B463D
:1002300000F0F8F83246434600F066FB22462B46B3
:1002400000F0C2F904460D464FF0404049493A4695
:100250005B4600F0E7F822462B465BE0012836DBE0
:100260000020454922462B4600F0DCF8CDE902018A
:100270002246424842492B4600F0D4F8CDE900011D
:100280003A46404840495B4600F0CCF804460D46EB
:10029000304641463D4A384B00F0C4F802460B4612
:1002A0002046294600F030FBDDE9002300F08CF900
:1002B000DDE9022300F088F904460D4600203449A8
:1002C0003A465B4600F0AEF822462B4622E04FF05D
:1002D000C040304922462B4600F0A4F8CDE9000189
:1002E00022462D482D492B4600F09CF804460D4629
:1002F0002B4828493246434600F094F802460B4604
:100300002046294600F000FBDDE9002300F05CF9FF
:100310003A465B4600F058F908B0BDE8F08D0000A1
:100320000000F0FFCD3B7F669EA0E63F0000F0BFDF
:100330000000F03FF7DE29BFD8F8C23FF4B3FECC8F
:100340001A99C33F62CB68D96F46C73FC6C912DA54
:10035000C471CC3F4AE98A942449D23FF75F979908
:100360009999D93FBC5555555555E53F9EBC9AF7CF
:100370001C7D7F3E422EE63F7BCBDB3FABA6320EA1
:10038000E526553E7CC4BC7FDE27743E0EE526156F
:100390001344D33F4715F73F44DF5DF80BAE543E9F
:1003A000FE822B6530B4436803F0004201211B0339
:1003B0001B0B436004BF0368002B08D10DE00368EA
:1003C000DD0F45EA440444605B000360491E446855
:1003D000E302F4D523031B0B436043681A434260D6
:1003E000084630BC70470000014800F063BB0000C5
:1003F000400A00204FF4001C1CEB410F94BF1CEB83
:10040000430F09E041EA030C50EA4C0C52EA0C0C91
:1004100003D2994208BF9042704714BF8B42824278
:1004200070470000B0B581EA030C0CF0004C40F2BC
:10043000FF7515EA11541DBF15EA1357AC42AF42C0
:1004400039E0E41923EA455343F48013C90241F02B
:10045000004141EA505EC7021100A7FB02020028DA
:100460004FF00000EEFB01204FF00001E3FB0721FD
:1004700018BF42F00102401800214941E3FB0E0180
:10048000A4F580640F0302D252004041494154F167
:1004900001046CDD470872F1004250F1000051EB9D
:1004A0000451A1F580115CBF41EA0C01B0BD4CEADA
:1004B00005510020B0BD05EA1357AC4214BFAF424E
:1004C00041E050EA410E1CBF52EA430E02E0614691
:1004D0000020B0BD24423C441BD15FEA070EF6D099
:1004E000090302BF01460020AEF1140EB1FA81F7F4
:1004F000AEEB070401FA07FE0C37C7F1200100FA42
:1005000007F7C8404EEA000E23EA455343F4801330
:10051000A2E733F00043B3FA83F704BFB2FA82FED6
:1005200077440B3FE41BB7F1200E2FBF02FA0EF306
:10053000BB40C7F1200E22FA0EFE38BF43EA0E037D
:10054000BA40641C82E750EA410E14BF52EA430EDF
:100550006FF000014FF4001717EB430F8ABF1946E5
:1005600017EB410FB5E74CEA05510020B0BDD4F1BF
:100570000104B4F120070FDAC4F12007520828BFA4
:1005800042F0010210FA07F501FA07F7E1BF2A432A
:10059000E0403843E1400FE0352C98DCC7F12004FF
:1005A00052EA400220FA07F218BF42F0010231FA83
:1005B00007F0A1400A43002172F1004250F100000F
:1005C00051EB0C01B0BD0000F0B44FF0004591EAD2
:1005D000030C44BF6B4000F0A1B900BF841A71EB5B
:1005E000030603D2001BB141121973414FF4001CE2
:1005F0001CEB410F34BF7CEB430443E00C0DA4EB38
:100600001356352E50DC45EAC323DB0A45EAC121E7
:10061000C912B6F120050DDD63FA05F6EB4086EA56
:100620000305124218BF45F00105C01851F1000141
:100630000CD213E062FA06F5F2405540F3415A40FD
:10064000B340F3405A408018594107D349085FEA44
:1006500030005FEA350528BF45F0010501F580113E
:10066000420875F1004250F1000041EB0451F0BC2A
:100670004FF4001C1CEB410F38BF70470020090DE0
:10068000090570471CEB410F10D252EA43060BD00C
:10069000BCEB410F05D80C0DAB43661E342EB5DD07
:1006A00002E0AB4380185941F0BC7047F0BC704782
:1006B0002DE9F04140F2FF7581EA030C0CF0004C8B
:1006C00015EA11541DBF15EA1357AC42AF42E9E0D9
:1006D000BC41C1F31301C3F31303801A994143F4DE
:1006E000801304D2641E4000494180185941C90258
:1006F00041EA5051B1FBF3F603FB1611A2FB06755C
:10070000D7EBC020A94102D2761E80185941C902F8
:1007100041EA5051B1FBF3FE03FB1E11A2FB0E7523
:10072000D7EBC020A94103D2AEF1010E8018594188
:10073000890241EA9051760546EA8E2EB1FBF3F626
:1007400003FB1611A2FB0675D7EB8020A94102D24C
:10075000761E80185941C90241EA50514EEA060EF0
:10076000B1FBF3F603FB1611A2FB0675D7EBC02015
:10077000A94102D2761E80185941C90241EA50515E
:10078000B1FBF3F703FB1711A2FB0735D3EBC02036
:10079000A94167F100070CBF004247F0010766F36B
:1007A000D5274FEA1E31B80814F5806414DDBD0763
:1007B00075F1004250EB0E5051EB045111F5801FC2
:1007C0005CBF41EA0C01BDE8F0814CF07F6141F073
:1007D000E0410020BDE8F081BD076D0840EA0E5001
:1007E00041F48011D4F10104B4F120060ADAC4F115
:1007F00020060200E04001FA06F3E1401843B2404F
:1008000015430EE0342C14DCC6F1200445EA400503
:100810006D0820FA06F2154321FA06F0A1400D43B7
:10082000002175F1004250F1000051EB0C01BDE8D0
:10083000F08100205FEA0C01BDE8F081CFB9921889
:100840005B41B3FA83F704BFB2FA82F6BF190B3FDC
:10085000B7F120062FBF02FA06F3BB40C7F120060E
:1008600022FA06F638BF3343BA401CB1E419641EBD
:100870002FE77F4231F00041B1FA81F404BFB0FAB2
:1008800080F6A4190B3CB4F120062FBF00FA06F144
:10089000A140C4F1200620FA06F638BF3143A0403B
:1008A0003C1B16E7AC421ABF05EA1357AF4214E0EF
:1008B00050EA41061CBF52EA4306BFE750EA41072F
:1008C000304661461CBF41EA0551BDE8F08152EA5D
:1008D000430C08BFC143BDE8F08100204FF400166F
:1008E00016EB410F98BF16EB430F08BF16EB410FF5
:1008F00024BFC14305E016EB430F0CBF61464CEA31
:100900000551BDE8F0810000F0B44FF0004591EAD8
:10091000030F44BF6B40FFF761BE00BF841A71EB49
:10092000030604D26E40001BB141121973414FF40B
:10093000001C1CEB410F34BF7CEB430684E00C0D24
:10094000A4EB1356362E7DDC012E43DC45EAC3238F
:1009500043EA525312BFD20292025B08240545EAD1
:10096000C12141EA5051D2EBC020994125D407D191
:10097000B0FA80F610FA06F164D00020203608E0C4
:10098000B1FA81F6B140C6F1200220FA02F2114319
:10099000B0404FEAF474B4EB465434F001064FEA29
:1009A00074040AD8D6F50016760D04F00044F04021
:1009B00061FA06F25040F1404840C00A40EA415016
:1009C00021F0004128BF5FEA500550F1000044EBE0
:1009D000D12137E045EAC323DB0A45EAC121C90A30
:1009E000B6F120050EDD42EA0242120CC5F12006E6
:1009F00003FA06F6EB4042EA06056D42984161F1C2
:100A000000010DE062FA06F5F240554063FA06FC7B
:100A100082EA0C02F3405A406D42904161EB0301BF
:100A200011F4801F05D1641E620502D06D004041A3
:100A3000494121F48011430875F1004350F1000051
:100A400041EB0451F0BC70471CEB410F15D223F071
:100A5000004352EA43060BD04FEA4C0CBCEB410F6B
:100A600004D80C0D661E342EB7DDEBE7801A9941D1
:100A700050EA410608BF0021E4E708BF1CEB430F22
:100A800028BF6FF00001DDE7010040F10780F44668
:100A9000404200F003F851F00041604709D0B0FA3D
:100AA00080F18840C91CC1F58461090501EBD021A2
:100AB000400570477047000080B500F098F80120AD
:100AC00000F043F8022000F040F8032000F03DF869
:100AD000012000F060F8022000F05DF8032000F033
:100AE0005AF8002000F004F8012000F001F801BDE0
:100AF0001CB5040001216848E4B250F8240000F05D
:100B0000E9F800A800F009FA6448E4B230F81400EB
:100B1000ADF8000000208DF8030002208DF80500DC
:100B200000A95F48E4B250F8240000F087F913BD33
:100B300010B504005948E4B230F814105848E4B233
:100B400050F8240000F0F5F910BD1CB50400012197
:100B50005448E4B250F8240000F0BCF800A800F0BB
:100B6000DCF95148E4B230F81400ADF8000001207F
:100B70008DF8030000208DF8040000208DF805009A
:100B800002208DF8020000A94848E4B250F8240081
:100B900000F054F913BDC0B204280EDA4249C0B2C5
:100BA00031F81010002908D03F49C0B231F81010B8
:100BB0003E4AC0B252F8202091617047C0B204286A
:100BC00014DA3949C0B231F8101000290ED0374973
:100BD000C0B251F82010898A334AC0B232F81020CE
:100BE0005140324AC0B252F820209182704780B5FD
:100BF0007FF0040000F0E0F92D48006800F0F6F9FD
:100C00002C4900F003FA2C4908602B4801682B4856
:100C100000F07AFA2A49086001BD38B50500ADB286
:100C2000002D37D0ADB2B5F5FA7F0BDD2448016851
:100C3000274800F069FA00F0D3FA22490860B5F5B8
:100C4000FA750DE0ADB2280000F0D0F91C49096832
:100C500000F05AFA00F0C4FA1A49086000200500B2
:100C60000020194908601948006850F00100174930
:100C7000086016480068040014F001100128F8D03C
:100C800012480068400840001049086000200E49E2
:100C90000860C4E731BD0000300A0020380A002097
:100CA000280A0020100A0020200A0020000A002044
:100CB0003C0A00200024F44A440F002000007A443B
:100CC000480F002014E000E018E000E010E000E031
:100CD0000000FA43C9B2002907D0DFF82C211268BE
:100CE0000243DFF824311A6006E0DFF81C211268A5
:100CF0008243DFF814311A607047C0B2012806D170
:100D00004249096851F03001404A116005E03F490D
:100D1000096831F030013D4A11607047F8B50400B0
:100D20000025002600273648006810F480300500B2
:100D30003448006806007FF007400640002D5CD074
:100D4000200000F053F907003800314900F05EF947
:100D500007002B480068800305D538005FF080410C
:100D600000F054F9070038002A4900F04BFA04D883
:100D70003800294900F058FA3FD33800274900F0DD
:100D800041FA07D83800264900F04EFA02D256F050
:100D9000807632E03800234900F034FA07D8380072
:100DA000214900F041FA02D256F0007625E03800E1
:100DB0001D4900F027FA07D838001C4900F034FA22
:100DC00002D256F0407618E03800194900F01AFABD
:100DD00007D83800174900F027FA02D256F080668B
:100DE0000BE03800134900F00DFA06D8380012491C
:100DF00000F01AFA01D256F0A06602480660F1BD72
:100E0000041002402C100240141002405410024002
:100E1000002474499A9979400000A0406766A64072
:100E20000000C8400100FA40AF47054100004841BA
:100E300001007A41D8A3A6413E0AFA41F0B400224B
:100E40000023002400252A00102A64D201259540A1
:100E50002B000D881D402C009C425AD1CD78012DCD
:100E600002D0CD78022D34D18D78022D15DA858F00
:100E700001269640B5438587856803261700FFB293
:100E80007F00BE40B543856085688E781700FFB24D
:100E90007F00BE403543856011E0858F0126964076
:100EA000B5438587856803261700FFB27F00BE40E3
:100EB000B5438560858F01269640354385878588B3
:100EC00001269640B543858085880E799640354346
:100ED0008580056803261700FFB27F00BE40B5433A
:100EE00005600568CE781700FFB27F00BE4035432D
:100EF0000560C56803261700FFB27F00BE40B543FA
:100F0000C560C5684E791700FFB27F00BE4035430B
:100F1000C560521C98E7F0BC70474FF6FF71018026
:100F20000021C170022181700021017100214171F5
:100F3000704702000020138A89B20B4202D00123BD
:100F4000180001E000231800C0B2704770B40024FC
:100F500000220F23C178002922D01F49096811F40B
:100F6000E061D1F5E061090A0C00D4F104010A0046
:100F700019000B00E340417891400C008178194042
:100F80000C432401154905786C540121057815F0AE
:100F90001F05A940124D0678761145F8261009E084
:100FA0000121057815F01F05A9400E4D0678761130
:100FB00045F8261070BC7047042806D10A49096814
:100FC00051F00401084A116005E00749096831F051
:100FD0000401054A116070470CED00E000E400E0F8
:100FE00000E100E080E100E010E000E0002800BF48
:100FF0000AD0B0FA80F18840D1F19D01C9050206FE
:1010000072F1004241EB10207047000010B5FF2341
:1010100013EAD0541DBF13EAD1529C429A4239E0E0
:10102000A41ADA0780EA0103134042EA012142EAE6
:101030000020421A3CBF641E01EB4202090AB2FBC7
:10104000F1FE01FB1E221202B2FBF1F001FB1022A5
:101050006EF30F201202B2FBF1FE4EEA00207F3445
:1010600006DDFE2C24DA53EA500050EBC45010BDCC
:10107000D4F1020401FB1E2240F08071192C1DDC0A
:1010800021FA04F0C4F12004A140114371F100429F
:10109000584110BD9C421ABF03EAD1529A420FE058
:1010A00080EA010E0EF00043400004D0490016D142
:1010B00043F0FF4010BD490008BFD343180010BDE6
:1010C0009C4205D1D21AF7D001F00041484010BD32
:1010D0004A0212BF0846484000F0004010BD4AB91D
:1010E0000902B1FA81F2914044B1A418C00140F064
:1010F00000409EE7C90141F0004152420002B0FAAF
:1011000080F4A040141B94E7FF2212EAD05C1DBFBC
:1011100012EAD153944593422BE09C44D30780EAD2
:1011200001021A4043EA002043EA0121A1FB0030FA
:10113000410038BF40007CF17F010BDBFE294ADA19
:101140005B0842EAC15153EA006373F1004C51EB72
:1011500010207047D1F1080CDCF120012FDB5B0877
:1011600010FA01F10B4373F1004120FA0CF05041E9
:10117000704794451CBF02EAD153934280EA0102B2
:1011800002F000421DD0400019D0490017D05BB9D1
:10119000634514D00902B1FA81F39940BCEB030C0A
:1011A000C00140F00040C1E70002B0FA80FC10FA34
:1011B0000CF0B3EB0C0CC90141F00041B6E7100094
:1011C000704740000AD0490008D010F1807F94BFDA
:1011D00011F1807F02E042F0FF407047D04370473A
:1011E00040000DD2010E7F390AD4D1F11F0104D481
:1011F000C00140F00040C84070477FF000007047D9
:10120000002070474FF0807C1CEB400F94BF1CEB1C
:10121000410F05E040EA010C5FEA4C0C01D281422B
:10122000704718BF884270474FF0807C1CEB400F1E
:1012300094BF1CEB410F05E040EA010C5FEA4C0C47
:1012400001D28842704718BF8142704780B5DFF8ED
:101250009001006850F00100DFF884110860DFF8A9
:1012600084010068DFF880110840DFF87811086019
:10127000DFF86C010068DFF874110840DFF86011D6
:101280000860DFF85C01006830F48020DFF850115E
:101290000860DFF850010068DFF854110840DFF8FB
:1012A00044110860DFF84C010068DFF84C11084079
:1012B000DFF8401108605FF41F00DFF8401108609C
:1012C00000F006F85FF00060DFF83411086001BD3F
:1012D00080B500F001F801BD00B583B00020019099
:1012E000002000903E48006850F480303C4908607F
:1012F0003B48006810F4003000900198401C0190B9
:101300000098002803D10198B0F5405FF0D134482F
:101310000068800302D50120009001E000200090C9
:10132000009801285AD13848006850F0100036491A
:10133000086035480068C008C0003349086032487A
:10134000006850F0030030490860264800682549CD
:1013500008602448006830F4605022490860214841
:101360000068204908601F48006830F4E0601D49AB
:1013700008601C4800681B4908601A480068234937
:101380000840184908601748006850F4541015497F
:1013900008601C48FFF7C2FC1148006850F08070DC
:1013A0000F4908600E4800688001FBD50120FFF757
:1013B000A4FC0C480068800880000A4908600948BD
:1013C000006850F00200074908600648006810F005
:1013D0000C000828F9D10020FFF78FFC07BD0000A2
:1013E00000100240041002400C00FFE8FFFFF6FE70
:1013F000FFFF00173010024000FFFEFE0810024001
:1014000008ED00E000127A0000200240FFFFC01F3C
:10141000816807E002681168536889185B18C36027
:1014200008320260C2689142F4D04A1C8260087897
:10143000704738B504460D46A068E168884212D16D
:1014400020686168884208BF00F0C3F82068227CE9
:10145000016802B14944A16042685218E260083054
:1014600091422060ECD0A068401CA06000F8015DB3
:1014700031BD2DE9F0418AB000F108010591026803
:10148000520801EBC2010691002107910891016801
:10149000490800EBC10108310091017901F0010117
:1014A0008DF8101040680099400801EBC0000190D1
:1014B00000200290039084E005A8FFF7A9FF0446EE
:1014C00014F0030603D105A8FFF7A2FFC61C2509E7
:1014D0000F2D1BD105A8FFF79BFF00F10F0515E0AD
:1014E0000598016808180599079049680818089038
:1014F000059808300590079808998842F0D0401C5C
:10150000079010F8011D00A8FFF793FF761EF2D197
:10151000002D51D005A8FFF77BFF0646A00800F07C
:101520000300032804BF05A8FFF772FFDDF8008061
:101530000299039F06EB002008E0A8F10808A8F133
:101540000801801A0A6849688F18394658F8082C2B
:101550008A1A8242F1D30C1AAE1C2DD0BC4206D19D
:1015600058F8044B58F8040B0719BC42F8D00298FD
:10157000039914F8015B884217D1009801998842B9
:1015800008BF00F026F8009800689DF8101002903F
:1015900009B148440290009902984968009A0918D4
:1015A0000832884203910092E7D00298401C0290D2
:1015B000761E00F8015DD1D10298039988427FF42C
:1015C0007BAF0198009981427FF476AF0AB0BDE805
:1015D000F081012000F000B880B5C046C046024A44
:1015E00011001820ABBEFBE72600020090EA010FB5
:1015F00044BF81F0004100F075B800BF431A4FF0BE
:1016000000423EBF5340C01AC91800BFD3095FEA69
:10161000D05C13EB400F34BFB3EB410F40E07CEBE9
:10162000D1530CD342EA012122D8D1EB402009D377
:10163000400A28BF5FEA500140EBCC507047401A87
:1016400015D04002B0FA80F2521C9040400A4FEA96
:101650003C23B3EB026384BF00EB730007E040F46C
:1016600000001A16DB07C2F10102D0401843704790
:10167000182BFCDC31FA03F202FA03F3591A38BFD3
:1016800042F00102D2EB40203CBF4000ACF1010C23
:101690005FEACC5CC20572F100414CEB5020704710
:1016A00013EB400F0FD24B0009D0ACEBD153022B00
:1016B00003DB4902172BDDDD70479143401A4300DD
:1016C000D5D10020704713EB410FD0D36FF000004D
:1016D0007047000090EA010F44BF81F00041FFF71E
:1016E0008DBF00BF421A3CBF801A89184FF0004CD2
:1016F000C0F3C752FF2A24D0C1F3C75313B3D21A81
:10170000D2F1190327DD4CEA01214CFA03F321EA57
:101710000303D140C20D4CEA0020401834BF20EA38
:101720000C004CEA5000D20553EA006373EB0C0C3A
:1017300052EB1020420012F1807F38BF7047C00D7D
:10174000C0057047490212BF9A4200EB5120F8E7EA
:10175000D2F11703D9D57047F8B5264805002648B9
:101760000600FFF7A9F900F03EF800F04DF8002060
:10177000FFF7DEF9002807D10220FFF71FFA4FF428
:101780009670FFF74AFAF2E70220FFF704FA4FF4E7
:10179000A072310028000EF0F2F84FF4A072164942
:1017A000164800F04BF8070038001549FFF73CFDDC
:1017B00003D27FF00500040001E00020040064B2C1
:1017C00014F1060F07D10120FFF7F8F94FF4FA7072
:1017D000FFF723FAF3E70320FFF7F0F94FF4FA706D
:1017E000FFF71BFAEBE70748006850F400300549A3
:1017F0000860704700000020440A00200005002017
:1018000000000C4324ED00E080B500F07FF80121DA
:101810004FF4806000F08EF800F083F803208DF81C
:10182000000003208DF8010003208DF80200012044
:101830008DF8030000A8FFF789FB01BD2DE9F04FEB
:1018400083B004000D009246002600200090002086
:101850000700574537D214EB87008046D8F80000C0
:101860008146DFF8A000814501D1002047E015EB5B
:1018700087008046D8F800008146DFF8880081455F
:1018800001D100203BE054F8271054F82700FFF75F
:101890003BFC3100FFF71EFF060054F8270055F807
:1018A0002710FFF7A3FE834654F8270055F82710AA
:1018B000FFF79CFE5946FFF727FC0099FFF70AFF48
:1018C00000907F1CC5E700A88046D8F8000081463C
:1018D000DFF83000814501D1002010E03000009990
:1018E000FFF794FB00F042F800F067F80022DFF801
:1018F0001830FEF797FD00F063F801900198BDE8FD
:10190000FE8F00000000C07F00002440DFF84C0084
:10191000DFF84C100860DFF84C00DFF84410086076
:101920007047DFF84400006850F08000DFF838109E
:1019300008607047C9B2002907D0DFF82C20126870
:101940000243DFF824301A6006E0DFF81C2012683A
:101950008243DFF814301A607047000023016745A6
:1019600004200240AB89EFCD102002405FF0FF0C55
:101970001CEAD05114BF614506E0C110400721F0B8
:10198000E04101F16051704779B900F00041000277
:101990000AD0B0FA80FC00FA0CF001F16051A1EB22
:1019A0000C5101EBD0214005704741020CBF40F4BF
:1019B000E0016FF00001002070470122FEF786BBB6
:1019C0004FEAF17CBCF1E04C2CBFBCF5001F11E0EC
:1019D0005FEA4C0C34BFBCF17F5F2EE05FEA9C0CE9
:1019E0004FEA0C1C4FEA3C0CC10071F100414CEB7A
:1019F00050707047C90241EA5051C00218BF41F00F
:101A0000010141F000414FEA6C50C0F1090021286A
:101A100010D240EACC7CCCF1200C11FA0CF070F121
:101A20000040CCF1200C21FA0CF00CF0004C40EB03
:101A30000C0070474FEACC707047490011F5001F49
:101A400004D84FEACC10FF30C0057047C817704764
:101A500019E050F8041BCB0744BFA9F10103591842
:101A6000121F0023042A41F8043BF9D25FEA827C6A
:101A70000B4604D54FF0000CA1F800C09B1CD10709
:101A800044BF0021197050F8042B002AE1D170479F
:101A90007047FEE7FEE7FEE7FEE7704770477047D6
:101AA000704780B5054800684FF4FA70FFF7B5F845
:101AB000024800680149086001BD00000C20024096
:101AC00010B5074979441831064C7C44163404E0BB
:101AD0000A68081D511888470146A142F8D110BD77
:101AE000080000003000000069FFFFFF080500004B
:101AF000440A0020000000007BF9FFFF0200000004
:101B000002000000C8000000CA0100000000002020
:101B1000440A000000F00BF8002801D0FFF7D0FFC6
:101B20000020C046C046FFF717FE00F002F8012073
:101B3000704700F001B8000007463846FFF74CFD3B
:101B4000FBE7000001488047014800474D120008AC
:101B5000551B0008C046C046C046C046FFF7DAFF26
:101B6000FFF7FEBFFFF7FEBFFFF7FEBFFFF7FEBFA9
:101B7000FFF7FEBFFFF7FEBFFFF7FEBFFFF7FEBF99
:101B8000FFF7FEBFFFF7FEBFFFF7FEBFFFF7FEBF89
:101B9000FFF7FEBFFFF7FEBFFFF7FEBFFFF7FEBF79
:101BA000FFF7FEBFFFF7FEBFFFF7FEBFFFF7FEBF69
:101BB000FFF7FEBFFFF7FEBFFFF7FEBFFFF7FEBF59
:101BC000FFF7FEBFFFF7FEBFFFF7FEBF12000110D9
:101BD0002AD9AB173F1504C2BD15EF433E00008064
:101BE0003F09B8D53EF304B53E72ADA03FD7B35D13
:101BF0003F5E83EC3EB2E4A83F8D65973F2F3108EE
:101C0000211021182120212821302138214021486C
:101C100021502158113012800812BF10123D1812A5
:101C2000BE0F12BF2812BE3012BE3812BF4012BF04
:101C30004812BE5012BF5812BF303108211021186F
:101C400021202128213021382140214821502158AC
:101C5000F152C0F2FF00C0D1C0FAFF8040F5BE8053
:101C6000F1CCC02120109180878DBAE95C49BAED92
:101C7000EC4FB94A1F8738A9AB083B4AC6713BB63F
:101C8000D3CF3AE03B2CBBF5BBF8BB059C43BC571C
:101C9000FE0DBC6CC9113C5159303D3A92C73DB064
:101CA00037323EDD49893E1EE2BF3E478AFA3EE6B4
:101CB000371A3F2AB4343F5FFD4B3F89205F3F8690
:101CC000836D3F27DD773FE2537E3F7E27803F1DB8
:101CD0001A7E3FEED8773FDAFA6C3FC32E5E3F752F
:101CE000954B3F6660353F5E291C3F9453003F1182
:101CF00052C43E92BB843E5C2106C8130080081289
:101D0000BE1012BE1812BE2012BF2812BF3012BF62
:101D10003812BF4012BF4812BF503006BFE0607E8D
:101D2000BFAA40800821102118212021282130211C
:101D300038214021482150215821F8216821702163
:101D400078218021882190219821A021A821B011FB
:101D500058123F603108F1FFC0F18AC0F2FF00C0A5
:101D6000D1C0F6F3808021483002001400480412EC
:101D700004043101524004320408100280000008BB
:101D800009124806112012020B2008080001000069
:061D900020000E27072EC3
:0400000508001B557F
:00000001FF
