:020000040800F2
:10000000A80600201D0200082F040008270400088D
:100010002B040008D70200081709000800000000A0
:10002000000000000000000000000000AD04000817
:10003000DB0200080000000031040008A5050008EC
:1000400037020008370200083702000837020008AC
:10005000370200083702000837020008370200089C
:10006000370200083702000837020008370200088C
:10007000370200083702000837020008370200087C
:10008000370200083702000837020008370200086C
:10009000370200083702000837020008370200085C
:1000A000370200083702000837020008370200084C
:1000B000370200083702000837020008370200083C
:1000C000370200083702000837020008370200082C
:1000D000370200083702000837020008370200081C
:1000E000370200083702000837020008370200080C
:1000F00037020008370200083702000837020008FC
:1001000037020008370200083702000837020008EB
:1001100037020008370200083702000837020008DB
:1001200037020008370200083702000837020008CB
:1001300037020008370200083702000837020008BB
:1001400000000000000000000000000000000000AF
:10015000370200083702000837020008370200089B
:10016000370200083702000837020008370200088B
:1001700037020008370200083702000800F002F8D2
:1001800000F03CF80AA090E8000C82448344AAF1F5
:100190000107DA4501D100F031F8AFF2090EBAE8F3
:1001A0000F0013F0010F18BFFB1A43F001031847AB
:1001B0006408000084080000103A24BF78C878C1A1
:1001C000FAD8520724BF30C830C144BF04680C605D
:1001D000704700000023002400250026103A28BFA5
:1001E00078C1FBD8520728BF30C148BF0B607047A9
:1001F0001FB500F009FC1FBD10B510BD00F031F8AF
:100200001146FFF7F5FF00F089FB00F04FF803B44B
:10021000FFF7F2FF03BC00F057F8000009488047E1
:1002200009480047FEE7FEE7FEE7FEE7FEE7FEE7D8
:10023000FEE7FEE7FEE7FEE704480549054A064BF0
:1002400070470000A90500087D010008A8000020F3
:10025000A8060020A8020020A802002070477047CE
:100260007047754600F02CF8AE46050069465346C7
:1002700020F00700854618B020B5FFF7DDFFBDE888
:1002800020404FF000064FF000074FF000084FF0FD
:10029000000B21F00701AC46ACE8C009ACE8C0098E
:1002A000ACE8C009ACE8C0098D46704710B50446FB
:1002B000AFF300802046BDE81040FFF7A8BF000064
:1002C000004870474400002001491820ABBEFEE7FB
:1002D00026000200704700BFFEE7704708B5C02047
:1002E000ADF8000018208DF8030002208DF8020000
:1002F0006946054800F00CF80320ADF80000694697
:10030000024800F005F808BD00080140000C01405B
:100310002DE9F0410246002500260020002300249C
:10032000002791F803C00CF00F0591F803C00CF002
:10033000100CBCF1000F03D091F802C04CEA050587
:1003400091F800C0BCF1000F31D0146800202BE000
:100350004FF0010C0CFA00F3B1F800C00CEA0306F0
:100360009E4220D183004FF00F0C0CFA03F7BC43E0
:1003700005FA03FC4CEA040491F803C0BCF1280F11
:1003800006D14FF0010C0CFA00FCC2F814C00AE0D0
:1003900091F803C0BCF1480F05D14FF0010C0CFAE5
:1003A00000FCC2F810C0401C0828D1D31460B1F87A
:1003B00000C0BCF1FF0F34DD546800202EE000F1D6
:1003C000080C4FF0010808FA0CF3B1F800C00CEA71
:1003D00003069E4221D183004FF00F0C0CFA03F765
:1003E000BC4305FA03FC4CEA040491F803C0BCF1D9
:1003F000280F05D100F1080C08FA0CF8C2F8148097
:1004000091F803C0BCF1480F07D100F1080C4FF080
:10041000010808FA0CF8C2F81080401C0828CED356
:100420005460BDE8F08100BFFEE700BFFEE7704703
:100430007047000029B1064AD2690243044BDA61D1
:1004400004E0034AD2698243014BDA61704700003D
:100450000010024029B1064A92690243044B9A6196
:1004600004E0034A92698243014B9A61704700009D
:100470000010024010B501210220FFF7DBFF01212F
:100480001D20FFF7E7FF10BD012806D10649496D81
:1004900041F03001044A516505E00349496D21F0FE
:1004A0003001014A5165704700100240704710B595
:1004B00000F002F810BD00001CB500200190009073
:1004C0003548006840F480303349086000BF324846
:1004D000006800F4003000900198401C01900098E2
:1004E00018B90198B0F5405FF1D12B48006800F4CD
:1004F000003010B10120009001E000200090009831
:10050000012847D12448406823494860084640688C
:1005100020F4605048600846406840F4005048604D
:100520000846406820F4E06048600846406840F4AF
:10053000806048600846406818490840164948608D
:100540000846406816490843134948600846006851
:1005500040F08070086000BF0F48006800F0007035
:100560000028F9D00120FFF78FFF0B48406820F0EA
:100570000300094948600846406840F002004860AE
:1005800000BF0548406800F00C000828F9D10020A1
:10059000FFF77AFF1CBD000000100240FFFFC01FE4
:1005A000000035A07047000010B51A48006840F4FC
:1005B0007000184908601848006840F001001649AA
:1005C00008600846406815490840134948600846D5
:1005D000006813490840104908600846006820F484
:1005E00080200860084640680E4908400A49486073
:1005F0000846006B0C490840074908634FF41F0088
:100600008860FFF754FF4FF00060024980390860AE
:1006100010BD000088ED00E0001002400C00FFE873
:10062000FFFFF6FEFFFF001700FFFEFE21B102886C
:1006300042F08002028004E002884FF67F731A4085
:100640000280704721B1028842F00102028004E07A
:1006500002884FF6FE731A400280704770B500247E
:1006600000220023058C4FF6FE7635400584028C6F
:100670008388048B4FF68F752C40B51E2C400D8857
:100680002C43751E2A408D892A434D882A43F51F25
:100690002A40CD892A43F51E2A408D882A434FF6E9
:1006A000FF652B404FF6FF552B400D8A2B434D8A9B
:1006B0002B43838004838D684563028470BD0A46A2
:1006C0000021018B4FF6F7731940114301837047E6
:1006D00070B5002400220023058C4FF6EF763540DC
:1006E0000584028C8388048B48F6FF752C404FF6F6
:1006F000FF452C400D884FF6FF7606EA05252C4372
:100700004FF6DF752A408D8906EA05152A434D8884
:1007100006EA05152A434FF67F752A40CD8906EA79
:1007200005152A434FF6BF752A408D8806EA051540
:100730002A434FF6FF352B404FF2FF752B400D8AB1
:1007400006EA85052B434D8A06EA85052B438380FF
:1007500004838D688563028470BD0A460021018B85
:100760004FF2FF7319404FF6FF7303EA0223194358
:100770000183704770B5002400220023058C4FF6DA
:10078000FF6635400584028C8388848B4FF68F7515
:100790002C404FF6FC752C400D882C434FF6FF552E
:1007A0002A408D894FF6FF7606EA05252A434D88B3
:1007B00006EA05252A434FF2FF752A40CD8906EA4D
:1007C00005252A434FF6FF352A408D8806EA052580
:1007D0002A434EF6FF752B404DF6FF752B400D8AD0
:1007E00006EA05152B434D8A06EA05152B4383803F
:1007F00084838D68C563028470BD0A460021818BA5
:100800004FF6F773194011438183704770B500228A
:1008100000230024058C4EF6FF7635400584038CBA
:100820008488828B48F6FF752A404FF6FF452A40A0
:100830000D884FF6FF7606EA05252A434DF6FF752B
:100840002B408D8906EA05352B434D8806EA053590
:100850002B434BF6FF752C400D8A06EA85152C4379
:10086000848082838D680564038470BD0A460021FC
:10087000818B4FF2FF7319404FF6FF7303EA022397
:10088000194381837047002101804180818081600C
:100890008181C1810182418270470000002202886B
:1008A000134B98420ED0B0F1804F0BD0114B9842B1
:1008B00008D0114B984205D0104B984202D0104BF3
:1008C000984205D14FF68F731A408B8813439AB222
:1008D0004FF6FF431A408B891A4302808B68C3622C
:1008E0000B8803858B7B038601238382704700007E
:1008F000002C014000080040000C00400034014082
:10090000000400404FF6FF71816000210180818169
:1009100041608173704700BFFEE70000FFF7AAFD4A
:10092000FFF7DCFC2E4800682E49B0FBF1F0401EBA
:100930002D4908802D48FFF7E5FF40F299202B490B
:1009400088602948008808800020888148602848FD
:10095000FFF7A4FF2748FFF796FF6020254908808E
:100960000120488024480088886000208881204831
:10097000FFF774FE08211E48FFF7A1FE01201D4964
:1009800048801E48008888601948FFF7A1FE0821AA
:100990001748FFF7E2FE01201649488018480088F2
:1009A00088601348FFF7E6FE08211148FFF725FF8E
:1009B0000120104948801348008888600C48FFF7E0
:1009C00025FF08210A48FFF751FF01210848FFF7DA
:1009D0002DFE01210648FFF735FE00BFFEE70000AF
:1009E0000C00002000366E010800002020000020CE
:1009F0000004004030000020000000200200002021
:100A000004000020060000204FF04070E1EE100AC4
:100A100070470000340A0008000000202000000099
:100A2000B8010008540A00082000002088060000D1
:100A3000D40100084D01F900A60053000000000099
:100A4000001C4E0E00000000000000000102030424
:040A50000607080984
:040000050800017D71
:00000001FF
