:020000040800F2
:10000000501F0020AD0C0008E90B0008EB0B0008A6
:10001000ED0B0008EF0B0008F10B000800000000DA
:10002000000000000000000000000000F30B0008CA
:10003000F50B000800000000F70B0008F90B0008A2
:10004000D70C0008DB0C0008DF0C0008FB0B0008D5
:10005000E30C0008E70C0008EB0C0008EF0C0008AC
:1000600000000000F30C0008F70C0008FB0C00086F
:10007000FF0C0008030D0008070D00080000000039
:100080000B0D00080F0D000800000000130D000804
:10009000170D00081B0D00081F0D0008230D000898
:1000A000270D00082B0D00082F0D0008330D000848
:1000B000370D0008000000000000000000000000F4
:1000C0003B0D0008000000003F0D000880B500F067
:1000D00098F8012000F043F8022000F040F80320D7
:1000E00000F03DF8012000F060F8022000F05DF81B
:1000F000032000F05AF8002000F004F8012000F07E
:1001000001F801BD1CB5040001216848E4B250F8B3
:10011000240000F0E9F800A800F009FA6448E4B20D
:1001200030F81400ADF8000000208DF80300022024
:100130008DF8050000A95F48E4B250F8240000F0F3
:1001400087F913BD10B504005948E4B230F8141013
:100150005848E4B250F8240000F0F5F910BD1CB581
:10016000040001215448E4B250F8240000F0BCF827
:1001700000A800F0DCF95148E4B230F81400ADF802
:10018000000001208DF8030000208DF804000020FD
:100190008DF8050002208DF8020000A94848E4B25D
:1001A00050F8240000F054F913BDC0B204280EDA50
:1001B0004249C0B231F81010002908D03F49C0B2FE
:1001C00031F810103E4AC0B252F8202091617047B9
:1001D000C0B2042814DA3949C0B231F8101000292D
:1001E0000ED03749C0B251F82010898A334AC0B2C4
:1001F00032F810205140324AC0B252F82020918289
:10020000704780B57FF0040000F0E0F92D480068E9
:100210000DF086FE2C490DF003FC2C4908602B489C
:1002200001682B480DF030FD2A49086001BD38B542
:100230000500ADB2002D37D0ADB2B5F5FA7F0BDDBC
:100240002448016827480DF01FFD0DF033FE2249B8
:100250000860B5F5FA750DE0ADB228000DF060FE4E
:100260001C4909680DF010FD0DF024FE1A490860C4
:10027000002005000020194908601948006850F066
:1002800001001749086016480068040014F00110C6
:100290000128F8D012480068400840001049086062
:1002A00000200E490860C4E731BD0000300A00207C
:1002B000380A0020280A0020100A0020200A002006
:1002C000000A00203C0A00200024F44A440F0020C9
:1002D00000007A44480F002014E000E018E000E03D
:1002E00010E000E00000FA43C9B2002907D0DFF8AF
:1002F0002C2112680243DFF824311A6006E0DFF88F
:100300001C2112688243DFF814311A607047C0B2B2
:10031000012806D14249096851F03001404A116074
:1003200005E03F49096831F030013D4A11607047EE
:10033000F8B504000025002600273648006810F4B0
:10034000803005003448006806007FF00740064012
:10035000002D5CD020000DF0E3FD0700380031498E
:100360000DF05EFB07002B480068800305D53800C0
:100370005FF080410DF054FB070038002A490DF072
:10038000BDFD04D8380029490DF0A6FD3FD3380043
:1003900027490DF0B3FD07D8380026490DF09CFD24
:1003A00002D256F0807632E0380023490DF0A6FDE7
:1003B00007D8380021490DF08FFD02D256F00076A3
:1003C00025E038001D490DF099FD07D838001C497B
:1003D0000DF082FD02D256F0407618E0380019493F
:1003E0000DF08CFD07D8380017490DF075FD02D2CD
:1003F00056F080660BE0380013490DF07FFD06D8FB
:10040000380012490DF068FD01D256F0A06602488E
:100410000660F1BD041002402C100240141002408E
:1004200054100240002474499A9979400000A04079
:100430006766A6400000C8400100FA40AF4705418A
:100440000000484101007A41D8A3A6413E0AFA4182
:10045000F0B400220023002400252A00102A64D2D0
:10046000012595402B000D881D402C009C425AD13F
:10047000CD78012D02D0CD78022D34D18D78022D8A
:1004800015DA858F01269640B54385878568032652
:100490001700FFB27F00BE40B543856085688E7847
:1004A0001700FFB27F00BE403543856011E0858FA5
:1004B00001269640B5438587856803261700FFB25D
:1004C0007F00BE40B5438560858F01269640354349
:1004D0008587858801269640B543858085880E7975
:1004E000964035438580056803261700FFB27F00DC
:1004F000BE40B54305600568CE781700FFB27F00A7
:10050000BE4035430560C56803261700FFB27F0073
:10051000BE40B543C560C5684E791700FFB27F0085
:10052000BE403543C560521C98E7F0BC70474FF69B
:10053000FF7101800021C1700221817000210171D1
:1005400000214171704702000020138A89B20B42DA
:1005500002D00123180001E000231800C0B2704748
:1005600070B4002400220F23C178002922D01F4933
:10057000096811F4E061D1F5E061090A0C00D4F1D9
:1005800004010A0019000B00E340417891400C007F
:10059000817819400C432401154905786C540121D8
:1005A000057815F01F05A940124D0678761145F81B
:1005B000261009E00121057815F01F05A9400E4D10
:1005C0000678761145F8261070BC7047042806D1CD
:1005D0000A49096851F00401084A116005E0074919
:1005E000096831F00401054A116070470CED00E024
:1005F00000E400E000E100E080E100E010E000E065
:1006000080B5DFF89001006850F00100DFF8841138
:100610000860DFF884010068DFF880110840DFF827
:1006200078110860DFF86C010068DFF87411084089
:10063000DFF860110860DFF85C01006830F48020AA
:10064000DFF850110860DFF850010068DFF854113E
:100650000840DFF844110860DFF84C010068DFF85B
:100660004C110840DFF8401108605FF41F00DFF80C
:100670004011086000F006F85FF00060DFF8341108
:10068000086001BD80B500F001F801BD00B583B080
:1006900000200190002000903E48006850F4803017
:1006A0003C4908603B48006810F400300090019815
:1006B000401C01900098002803D10198B0F5405FDC
:1006C000F0D134480068800302D50120009001E099
:1006D00000200090009801285AD13848006850F056
:1006E00010003649086035480068C008C00033492A
:1006F00008603248006850F003003049086026481E
:100700000068254908602448006830F46050224998
:10071000086021480068204908601F48006830F4DC
:10072000E0601D4908601C4800681B4908601A48C1
:10073000006823490840184908601748006850F4C9
:100740005410154908601C48FFF7F2FD1148006875
:1007500050F080700F4908600E4800688001FBD59A
:100760000120FFF7D4FD0C480068800880000A498A
:1007700008600948006850F0020007490860064810
:10078000006810F00C000828F9D10020FFF7BFFD29
:1007900007BD000000100240041002400C00FFE8FA
:1007A000FFFFF6FEFFFF00173010024000FFFEFEC5
:1007B0000810024008ED00E000127A00002002401C
:1007C000FFFFC01F816807E002681168536889183D
:1007D0005B18C36008320260C2689142F4D04A1CC0
:1007E00082600878704738B504460D46A068E16815
:1007F000884212D120686168884208BF00F0C3F8BF
:100800002068227C016802B14944A1604268521804
:10081000E260083091422060ECD0A068401CA060EB
:1008200000F8015D31BD2DE9F0418AB000F1080109
:1008300005910268520801EBC2010691002107915F
:1008400008910168490800EBC10108310091017964
:1008500001F001018DF8101040680099400801EB8B
:10086000C000019000200290039084E005A8FFF7EB
:10087000A9FF044614F0030603D105A8FFF7A2FF61
:10088000C61C25090F2D1BD105A8FFF79BFF00F102
:100890000F0515E005980168081805990790496843
:1008A000081808900598083005900798089988421C
:1008B000F0D0401C079010F8011D00A8FFF793FF2F
:1008C000761EF2D1002D51D005A8FFF77BFF06461A
:1008D000A00800F00300032804BF05A8FFF772FF7B
:1008E000DDF800800299039F06EB002008E0A8F1E4
:1008F0000808A8F10801801A0A6849688F18394663
:1009000058F8082C8A1A8242F1D30C1AAE1C2DD04A
:10091000BC4206D158F8044B58F8040B0719BC42E6
:10092000F8D00298039914F8015B884217D1009817
:100930000199884208BF00F026F8009800689DF8E9
:100940001010029009B14844029000990298496839
:10095000009A09180832884203910092E7D0029861
:10096000401C0290761E00F8015DD1D102980399D7
:1009700088427FF47BAF0198009981427FF476AF83
:100980000AB0BDE8F081012000F000B880B5C04693
:10099000C0462623C0F2020319461820ABBEFBE76F
:1009A000F8B52448050024480600FFF78FFB00F047
:1009B00049F80020FFF7C6FB002807D10220FFF707
:1009C00007FC4FF49670FFF732FCF2E70220FFF7C6
:1009D000ECFB0020FFF7B6FB0028FAD04FF4A07222
:1009E000310028000EF0CBFF4FF4A07212491348DB
:1009F00000F042F80700380011490DF06DFA03D2FB
:100A00007FF00500040001E00020040064B214F14E
:100A1000060F07D10120FFF7DBFB4FF4FA70FFF759
:100A200006FCF3E70320FFF7D3FB4FF4FA70FFF760
:100A3000FEFBEBE700000020440A00200005002038
:100A400000000C4380B500F07FF801214FF4806076
:100A500000F08EF800F083F803208DF800000320EA
:100A60008DF8010003208DF8020001208DF80300AD
:100A700000A8FFF775FD01BD2DE9F04F83B004001C
:100A80000D009246002600200090002007005745E8
:100A900037D214EB87008046D8F800008146DFF893
:100AA000A000814501D1002047E015EB870080467A
:100AB000D8F800008146DFF88800814501D1002088
:100AC0003BE054F8271054F827000DF0DDF8310012
:100AD0000DF098F8060054F8270055F827100DF08F
:100AE0001DF8834654F8270055F827100DF016F826
:100AF00059460DF0C9F800990DF084F800907F1C5C
:100B0000C5E700A88046D8F800008146DFF830002D
:100B1000814501D1002010E0300000990CF080FFE9
:100B20000DF0A0F90DF00BFA0022DFF818300CF0F0
:100B30002FFC0DF015F901900198BDE8FE8F000023
:100B40000000C07F00002440DFF84C00DFF84C10AC
:100B50000860DFF84C00DFF8441008607047DFF8E9
:100B60004400006850F08000DFF8381008607047DB
:100B7000C9B2002907D0DFF82C2012680243DFF841
:100B800024301A6006E0DFF81C2012688243DFF888
:100B900014301A60704700002301674504200240AA
:100BA000AB89EFCD1020024019E050F8041BCB07B1
:100BB00044BFA9F101035918121F0023042A41F868
:100BC000043BF9D25FEA827C0B4604D54FF0000C5F
:100BD000A1F800C09B1CD10744BF0021197050F838
:100BE000042B002AE1D170477047FEE7FEE7FEE7DD
:100BF000FEE7704770477047704780B5054800684A
:100C00004FF4FA70FFF713FB0248006801490860CF
:100C100001BD00000C20024010B540F22E01C0F2D0
:100C200000017944A1F10C0140F25404C0F2000427
:100C30007C44A4F10C0404E00A68081D511888479C
:100C40000146A142F8D110BD61FFFFFFF000000096
:100C5000003C002008050000440A002000000000BD
:100C6000C7FBFFFF0200000002000000D6000000EA
:100C7000CA01000000000020440A000000F00BF848
:100C8000002801D0FFF7C8FF0020C046C046FFF78C
:100C900087FE00F002F80120704700F001B8000064
:100CA00007463846FFF772FEFBE700000148804721
:100CB0000148004701060008BD0C0008C046C046B8
:100CC000C046C046FFF7DAFF40F64020C2F20000FF
:100CD00000F000B87047FFF7FEBFFFF7FEBFFFF759
:100CE000FEBFFFF7FEBFFFF7FEBFFFF7FEBFFFF738
:100CF000FEBFFFF7FEBFFFF7FEBFFFF7FEBFFFF728
:100D0000FEBFFFF7FEBFFFF7FEBFFFF7FEBFFFF717
:100D1000FEBFFFF7FEBFFFF7FEBFFFF7FEBFFFF707
:100D2000FEBFFFF7FEBFFFF7FEBFFFF7FEBFFFF7F7
:100D3000FEBFFFF7FEBFFFF7FEBFFFF7FEBFFFF7E7
:100D4000FEBF120001102AD9AB173F1504C2BD1512
:100D5000EF433E0000803F09B8D53EF304B53E7234
:100D6000ADA03FD7B35D3F5E83EC3EB2E4A83F8DBC
:100D700065973F2F3108211021182120212821308B
:100D80002138214021482150215811301280081269
:100D9000BF10123D1812BE0F12BF2812BE3012BE75
:100DA0003812BF4012BF4812BE5012BF5812BF3097
:100DB00031082110211821202128213021382140FB
:100DC000214821502158F152C0F2FF00C0D1C0FA91
:100DD000FF8040F5BE80F1CCC02120109180878D2E
:100DE000BAE95C49BAEDEC4FB94A1F8738A9AB089C
:100DF0003B4AC6713BB6D3CF3AE03B2CBBF5BBF8C0
:100E0000BB059C43BC57FE0DBC6CC9113C5159300D
:100E10003D3A92C73DB037323EDD49893E1EE2BFC2
:100E20003E478AFA3EE6371A3F2AB4343F5FFD4B0D
:100E30003F89205F3F86836D3F27DD773FE2537E0A
:100E40003F7E27803F1D1A7E3FEED8773FDAFA6C4F
:100E50003FC32E5E3F75954B3F6660353F5E291C54
:100E60003F9453003F1152C43E92BB843E5C210626
:100E7000C81300800812BE1012BE1812BE2012BF86
:100E80002812BF3012BF3812BF4012BF4812BF50E5
:100E90003006BFE0607EBFAA4080082110211821E3
:100EA000202128213021382140214821502158215A
:100EB000F8216821702178218021882190219821B2
:100EC000A021A821B01158123F603108F1FFC0F1F4
:100ED0008AC0F2FF00C0D1C0F6F380802148300202
:100EE0000014004804120404310152400432040882
:100EF00010028000000809124806112012020B207F
:0C0F000008080001000020000E27072E4A
:10D000002DE9F64D03B4C1F30A5040F2FF71884296
:10D0100084B00CD105980027000304BF04980028B1
:10D0200002D10598002819D4DDE9040174E1012832
:10D030000DDA04A800F073F9012808DBF3F744FEC9
:10D040002221016000200021CFF6F07164E1059AF1
:10D0500040F2FE3161F31E520592471A05980028EE
:10D0600008D5F3F731FE212101604FF0FF306FF05A
:10D07000004151E1DDE9040143F6CD324AF29E035D
:10D08000C6F27F62C3F6E67300F06AF909D2DDE901
:10D09000042300204FF0804100F07AF9CDE904012B
:10D0A0007F1EDDE9042300210020CBF6F07100F0A3
:10D0B00041FA0D46DDE90423044600210020C3F6B1
:10D0C000F07100F037FA02460B462046294600F080
:10D0D000A5FA82468B4652465B4600F059F9064651
:10D0E00088464DF6F7604FF6D801CBF62970C3F6A7
:10D0F000C2713246434600F04BF94BF2F43249F626
:10D100001A13CCF6FE42C3F6C37300F013FA32468C
:10D11000434600F03DF94CF6623244F26F63CDF6BF
:10D120006812C3F6C77300F005FA3246434600F0B2
:10D130002FF94CF6C61247F2C413CDF61222C3F6ED
:10D14000CC7300F0F7F93246434600F021F94EF671
:10D150004A1244F62413C9F28A42C3F6D27300F08D
:10D16000E9F93246434600F013F945F6F77249F6FD
:10D170009913C9F69712C3F6D97300F0DBF932465A
:10D18000434600F005F945F2BC5245F25553C5F24D
:10D190005552C3F6E57300F0CDF93246434600F030
:10D1A000F7F802460B462046294600F063FB52463C
:10D1B0005B4600F0EDF80646884638B200F01AFCEF
:10D1C000074607988B4610BB4BF69E4047F61C510E
:10D1D000CFF29A70C3F67F613A465B4600F0D8F80A
:10D1E0003246434600F046FB22462B4600F0A2F9A9
:10D1F0000D46044642F642614FF04040C3F6E671E8
:10D200003A465B4600F0C4F822462B4682E00128ED
:10D210004EDB4CF67B310020C3F6DB7122462B46F9
:10D2200000F0B6F8CDE902014AF2AB6042F2E561E6
:10D23000C0F63260C3F6556122462B4600F0A8F8CE
:10D24000CDE900014CF27C4042F2DE71C7F6BC70C1
:10D25000C3F674613A465B4600F09AF804460D4600
:10D260004EF20E524CF67B3330464146C1F2265206
:10D27000C3F6DB7300F08CF802460B4620462946C5
:10D2800000F0F8FADDE9002300F054F9DDE90223AB
:10D2900000F050F90D46044644F213410020C3F655
:10D2A000D3713A465B4600F073F822462B4631E0D4
:10D2B00041F247514FF0C040C3F6F77122462B466A
:10D2C00000F066F8CDE900014DF644704AF60B61B6
:10D2D000CFF65D00C3F6546122462B4600F058F8A5
:10D2E00004460D4648F2FE2041F24751C6F22B504B
:10D2F000C3F6F7713246434600F04AF802460B4641
:10D300002046294600F0B6FADDE9002300F012F9C4
:10D310003A465B4600F00EF908B0BDE8F08D30B437
:10D32000436803F0004201211B031B0B436004BF51
:10D330000368002B08D10DE00368DD0F45EA4404C3
:10D3400044605B000360491E4468E302F4D5230394
:10D350001B0B436043681A434260084630BC704769
:10D360004FF4001C1CEB410F94BF1CEB430F09E072
:10D3700041EA030C50EA4C0C52EA0C0C03D29942DD
:10D3800008BF9042704714BF8B4282427047000032
:10D39000B0B581EA030C0CF0004C40F2FF7515EAC1
:10D3A00011541DBF15EA1357AC42AF4239E0E419DE
:10D3B00023EA455343F48013C90241F0004141EA96
:10D3C000505EC7021100A7FB020200284FF00000C8
:10D3D000EEFB01204FF00001E3FB072118BF42F0F4
:10D3E0000102401800214941E3FB0E01A4F58064CD
:10D3F0000F0302D252004041494154F101046CDD57
:10D40000470872F1004250F1000051EB0451A1F5C0
:10D4100080115CBF41EA0C01B0BD4CEA055100200F
:10D42000B0BD05EA1357AC4214BFAF4241E050EA29
:10D43000410E1CBF52EA430E02E061460020B0BD1F
:10D4400024423C441BD15FEA070EF6D0090302BF19
:10D4500001460020AEF1140EB1FA81F7AEEB0704DD
:10D4600001FA07FE0C37C7F1200100FA07F7C840A0
:10D470004EEA000E23EA455343F48013A2E733F04B
:10D480000043B3FA83F704BFB2FA82FE77440B3F3E
:10D49000E41BB7F1200E2FBF02FA0EF3BB40C7F119
:10D4A000200E22FA0EFE38BF43EA0E03BA40641C77
:10D4B00082E750EA410E14BF52EA430E6FF00001BA
:10D4C0004FF4001717EB430F8ABF194617EB410FB4
:10D4D000B5E74CEA05510020B0BDD4F10104B4F128
:10D4E00020070FDAC4F12007520828BF42F00102DA
:10D4F00010FA07F501FA07F7E1BF2A43E040384385
:10D50000E1400FE0352C98DCC7F1200452EA4002DC
:10D5100020FA07F218BF42F0010231FA07F0A140E9
:10D520000A43002172F1004250F1000051EB0C015E
:10D53000B0BD0000F0B44FF0004591EA030C44BFC9
:10D540006B4000F0A1B900BF841A71EB030603D24F
:10D55000001BB141121973414FF4001C1CEB410F29
:10D5600034BF7CEB430443E00C0DA4EB1356352E83
:10D5700050DC45EAC323DB0A45EAC121C912B6F1F2
:10D5800020050DDD63FA05F6EB4086EA030512423D
:10D5900018BF45F00105C01851F100010CD213E08D
:10D5A00062FA06F5F2405540F3415A40B340F34069
:10D5B0005A408018594107D349085FEA30005FEAB2
:10D5C000350528BF45F0010501F58011420875F1C8
:10D5D000004250F1000041EB0451F0BC4FF4001C3C
:10D5E0001CEB410F38BF70470020090D090570473B
:10D5F0001CEB410F10D252EA43060BD0BCEB410F9B
:10D6000005D80C0DAB43661E342EB5DD02E0AB43EE
:10D6100080185941F0BC7047F0BC70472DE9F041CB
:10D6200040F2FF7581EA030C0CF0004C15EA11542E
:10D630001DBF15EA1357AC42AF42E9E0BC41C1F34C
:10D640001301C3F31303801A994143F4801304D2E6
:10D65000641E4000494180185941C90241EA5051B5
:10D66000B1FBF3F603FB1611A2FB0675D7EBC02046
:10D67000A94102D2761E80185941C90241EA50518F
:10D68000B1FBF3FE03FB1E11A2FB0E75D7EBC0200E
:10D69000A94103D2AEF1010E80185941890241EA35
:10D6A0009051760546EA8E2EB1FBF3F603FB161178
:10D6B000A2FB0675D7EB8020A94102D2761E801806
:10D6C0005941C90241EA50514EEA060EB1FBF3F648
:10D6D00003FB1611A2FB0675D7EBC020A94102D2AD
:10D6E000761E80185941C90241EA5051B1FBF3F747
:10D6F00003FB1711A2FB0735D3EBC020A94167F14B
:10D7000000070CBF004247F0010766F3D5274FEA38
:10D710001E31B80814F5806414DDBD0775F10042B0
:10D7200050EB0E5051EB045111F5801F5CBF41EAE4
:10D730000C01BDE8F0814CF07F6141F0E041002038
:10D74000BDE8F081BD076D0840EA0E5041F480113C
:10D75000D4F10104B4F120060ADAC4F12006020073
:10D76000E04001FA06F3E1401843B24015430EE0F1
:10D77000342C14DCC6F1200445EA40056D0820FA7B
:10D7800006F2154321FA06F0A1400D43002175F180
:10D79000004250F1000051EB0C01BDE8F081002087
:10D7A0005FEA0C01BDE8F081CFB992185B41B3FA92
:10D7B00083F704BFB2FA82F6BF190B3FB7F1200618
:10D7C0002FBF02FA06F3BB40C7F1200622FA06F685
:10D7D00038BF3343BA401CB1E419641E2FE77F42BF
:10D7E00031F00041B1FA81F404BFB0FA80F6A41917
:10D7F0000B3CB4F120062FBF00FA06F1A140C4F1A2
:10D80000200620FA06F638BF3143A0403C1B16E73D
:10D81000AC421ABF05EA1357AF4214E050EA410682
:10D820001CBF52EA4306BFE750EA41073046614653
:10D830001CBF41EA0551BDE8F08152EA430C08BF24
:10D84000C143BDE8F08100204FF4001616EB410FF4
:10D8500098BF16EB430F08BF16EB410F24BFC1431F
:10D8600005E016EB430F0CBF61464CEA0551BDE8DD
:10D87000F0810000F0B44FF0004591EA030F44BF7F
:10D880006B40FFF761BE00BF841A71EB030604D240
:10D890006E40001BB141121973414FF4001C1CEB88
:10D8A000410F34BF7CEB430684E00C0DA4EB135610
:10D8B000362E7DDC012E43DC45EAC32343EA525376
:10D8C00012BFD20292025B08240545EAC12141EA57
:10D8D0005051D2EBC020994125D407D1B0FA80F63F
:10D8E00010FA06F164D00020203608E0B1FA81F683
:10D8F000B140C6F1200220FA02F21143B0404FEAD3
:10D90000F474B4EB465434F001064FEA74040AD8B8
:10D91000D6F50016760D04F00044F04061FA06F2E8
:10D920005040F1404840C00A40EA415021F00041D7
:10D9300028BF5FEA500550F1000044EBD12137E0E9
:10D9400045EAC323DB0A45EAC121C90AB6F120052D
:10D950000EDD42EA0242120CC5F1200603FA06F679
:10D96000EB4042EA06056D42984161F100010DE08D
:10D9700062FA06F5F240554063FA06FC82EA0C02B0
:10D98000F3405A406D42904161EB030111F4801F56
:10D9900005D1641E620502D06D004041494121F469
:10D9A0008011430875F1004350F1000041EB045130
:10D9B000F0BC70471CEB410F15D223F0004352EA34
:10D9C00043060BD04FEA4C0CBCEB410F04D80C0DB6
:10D9D000661E342EB7DDEBE7801A994150EA410606
:10D9E00008BF0021E4E708BF1CEB430F28BF6FF01E
:10D9F0000001DDE7010040F10780F446404200F0FD
:10DA000003F851F00041604709D0B0FA80F1884036
:10DA1000C91CC1F58461090501EBD021400570479F
:10DA200010B5FF2313EAD0541DBF13EAD1529C4214
:10DA30009A4239E0A41ADA0780EA0103134042EA65
:10DA4000012142EA0020421A3CBF641E01EB42025F
:10DA5000090AB2FBF1FE01FB1E221202B2FBF1F039
:10DA600001FB10226EF30F201202B2FBF1FE4EEA10
:10DA700000207F3406DDFE2C24DA53EA500050EB00
:10DA8000C45010BDD4F1020401FB1E2240F080718D
:10DA9000192C1DDC21FA04F0C4F12004A14011432B
:10DAA00071F10042584110BD9C421ABF03EAD152A5
:10DAB0009A420FE080EA010E0EF00043400004D0CD
:10DAC000490016D143F0FF4010BD490008BFD343C1
:10DAD000180010BD9C4205D1D21AF7D001F00041C8
:10DAE000484010BD4A0212BF0846484000F00040BE
:10DAF00010BD4AB90902B1FA81F2914044B1A418AB
:10DB0000C00140F000409EE7C90141F0004152428F
:10DB10000002B0FA80F4A040141B94E790EA010FD1
:10DB200044BF81F0004100F075B800BF431A4FF0C8
:10DB300000423EBF5340C01AC91800BFD3095FEA74
:10DB4000D05C13EB400F34BFB3EB410F40E07CEBF4
:10DB5000D1530CD342EA012122D8D1EB402009D382
:10DB6000400A28BF5FEA500140EBCC507047401A92
:10DB700015D04002B0FA80F2521C9040400A4FEAA1
:10DB80003C23B3EB026384BF00EB730007E040F477
:10DB900000001A16DB07C2F10102D040184370479B
:10DBA000182BFCDC31FA03F202FA03F3591A38BFDE
:10DBB00042F00102D2EB40203CBF4000ACF1010C2E
:10DBC0005FEACC5CC20572F100414CEB502070471B
:10DBD00013EB400F0FD24B0009D0ACEBD153022B0B
:10DBE00003DB4902172BDDDD70479143401A4300E8
:10DBF000D5D10020704713EB410FD0D36FF0000058
:10DC00007047000090EA010F44BF81F00041FFF728
:10DC10008DBF00BF421A3CBF801A89184FF0004CDC
:10DC2000C0F3C752FF2A24D0C1F3C75313B3D21A8B
:10DC3000D2F1190327DD4CEA01214CFA03F321EA62
:10DC40000303D140C20D4CEA0020401834BF20EA43
:10DC50000C004CEA5000D20553EA006373EB0C0C45
:10DC600052EB1020420012F1807F38BF7047C00D88
:10DC7000C0057047490212BF9A4200EB5120F8E7F5
:10DC8000D2F11703D9D57047FF2212EAD05C1DBF2D
:10DC900012EAD153944593422BE09C44D30780EA87
:10DCA00001021A4043EA002043EA0121A1FB0030AF
:10DCB000410038BF40007CF17F010BDBFE294ADACE
:10DCC0005B0842EAC15153EA006373F1004C51EB27
:10DCD00010207047D1F1080CDCF120012FDB5B082C
:10DCE00010FA01F10B4373F1004120FA0CF050419E
:10DCF000704794451CBF02EAD153934280EA010267
:10DD000002F000421DD0400019D0490017D05BB985
:10DD1000634514D00902B1FA81F39940BCEB030CBE
:10DD2000C00140F00040C1E70002B0FA80FC10FAE8
:10DD30000CF0B3EB0C0CC90141F00041B6E7100048
:10DD4000704740000AD0490008D010F1807F94BF8E
:10DD500011F1807F02E042F0FF407047D0437047EE
:10DD60004FEAF17CBCF1E04C2CBFBCF5001F11E088
:10DD70005FEA4C0C34BFBCF17F5F2EE05FEA9C0C85
:10DD80004FEA0C1C4FEA3C0CC10071F100414CEB16
:10DD900050707047C90241EA5051C00218BF41F0AB
:10DDA000010141F000414FEA6C50C0F10900212807
:10DDB00010D240EACC7CCCF1200C11FA0CF070F1BE
:10DDC0000040CCF1200C21FA0CF00CF0004C40EBA0
:10DDD0000C0070474FEACC707047490011F5001FE6
:10DDE00004D84FEACC10FF30C0057047C817704701
:10DDF000B9E1EEBA1222D0BA00000000F755723B2A
:10DE0000CF4E043C58C20B3C000000809E858EBC67
:10DE100088DC0BBD9CA308BD000000000A828A3D7F
:10DE2000F0DB1B3E5F46643E0641803E5F46643E3B
:10DE3000F0DB1B3E0A828A3D000000009CA308BD67
:10DE400088DC0BBD9E858EBC0000008058C20B3C58
:10DE5000CF4E043CF755723B000000001222D0BAAE
:10DE6000B9E1EEBA5FF0FF0C1CEAD05114BF614576
:10DE700006E0C110400721F0E04101F16051704718
:10DE800079B900F0004100020AD0B0FA80FC00FA33
:10DE90000CF001F16051A1EB0C5101EBD0214005D8
:10DEA000704741020CBF40F4E0016FF00001002018
:10DEB0007047000040000DD2010E7F390AD4D1F125
:10DEC0001F0104D4C00140F00040C84070477FF0FB
:10DED00000007047002070474FF0807C1CEB400F23
:10DEE00094BF1CEB410F05E040EA010C5FEA4C0CCB
:10DEF00001D28842704718BF814270474FF0807C42
:10DF00001CEB400F94BF1CEB410F05E040EA010CF5
:10DF10005FEA4C0C01D28142704718BF88427047BB
:10DF2000002800BF0AD0B0FA80F18840D1F19D01ED
:10DF3000C905020672F1004241EB10207047012230
:04DF4000FFF75EB8D1
:10F000002DE9FF4F9BB01B98406803901B988068C8
:10F0100019901B98008817901B984068179910EB5F
:10F020008100001F01901E98C008169016980028B5
:10F0300000F015841C980068019908601C98001D58
:10F040001C900198001D01901C98006801990860AF
:10F050001C98001D1C900198001D01901C980068D0
:10F06000019908601C98001D1C900198001D0190DA
:10F070001C980068019908601C98001D1C9001985C
:10F08000001D019000208346002004900020040011
:10F090000020050000200600002007000020804618
:10F0A0000020814603988246199802901C980068B7
:10F0B000019908601C98001D1C900198001D01908A
:10F0C0001C980068019908601C98001D1C9001980C
:10F0D000001D01901C980068019908601C98001D93
:10F0E0001C900198001D01901C980068019908600F
:10F0F0001C98001D1C900198001D0190DAF800007A
:10F1000015901AF1040ADAF8000013901AF1040AB3
:10F11000DAF8000012901AF1040ADAF800001190EF
:10F120001AF1040ADAF8000010901AF1040ADAF869
:10F1300000000F901AF1040ADAF800000E901AF19C
:10F14000040A1798C0080D900D98002800F0DC8282
:10F150000298006800900298001D0290DAF8000002
:10F1600014901AF1040A15990098FEF78DFD0C9081
:10F1700013990098FEF788FD0B9012990098FEF7FE
:10F1800083FD0A9011990098FEF77EFD0990109971
:10F190000098FEF779FD08900F990098FEF774FD2E
:10F1A00007900E990098FEF76FFD0690149900984D
:10F1B000FEF76AFD05900298006800900298001D15
:10F1C0000290DAF8000015901AF1040A0C985946DA
:10F1D000FEF718FD834604990B98FEF713FD049083
:10F1E0000A982100FEF70EFD040009982900FEF799
:10F1F00009FD050008983100FEF704FD0600079898
:10F200003900FEF7FFFC070006984146FEF7FAFCBE
:10F21000804605984946FEF7F5FC8146139900980B
:10F22000FEF732FD0C9012990098FEF72DFD0B9021
:10F2300011990098FEF728FD0A9010990098FEF7A2
:10F2400023FD09900F990098FEF71EFD08900E9976
:10F250000098FEF719FD079014990098FEF714FD29
:10F26000069015990098FEF70FFD0590029800682A
:10F2700000900298001D0290DAF8000013901AF135
:10F28000040A0C985946FEF7BDFC834604990B9876
:10F29000FEF7B8FC04900A982100FEF7B3FC0400C6
:10F2A00009982900FEF7AEFC050008983100FEF72A
:10F2B000A9FC060007983900FEF7A4FC0700069891
:10F2C0004146FEF79FFC804605984946FEF79AFCAA
:10F2D000814612990098FEF7D7FC0C90119900987E
:10F2E000FEF7D2FC0B9010990098FEF7CDFC0A9027
:10F2F0000F990098FEF7C8FC09900E990098FEF748
:10F30000C3FC089014990098FEF7BEFC079015996D
:10F310000098FEF7B9FC069013990098FEF7B4FC2C
:10F3200005900298006800900298001D0290DAF89B
:10F33000000012901AF1040A0C985946FEF762FC7C
:10F34000834604990B98FEF75DFC04900A9821000F
:10F35000FEF758FC040009982900FEF753FC05004D
:10F3600008983100FEF74EFC060007983900FEF7BA
:10F3700049FC070006984146FEF744FC8046059884
:10F380004946FEF73FFC814611990098FEF77CFC48
:10F390000C9010990098FEF777FC0B900F9900984D
:10F3A000FEF772FC0A900E990098FEF76DFC09902A
:10F3B00014990098FEF768FC089015990098FEF7DC
:10F3C00063FC079013990098FEF75EFC0690129973
:10F3D0000098FEF759FC059002980068009002988A
:10F3E000001D0290DAF8000011901AF1040A0C983E
:10F3F0005946FEF707FC834604990B98FEF702FC7A
:10F4000004900A982100FEF7FDFB040009982900EA
:10F41000FEF7F8FB050008983100FEF7F3FB060045
:10F4200007983900FEF7EEFB070006984146FEF705
:10F43000E9FB804605984946FEF7E4FB81461099B2
:10F440000098FEF721FC0C900F990098FEF71CFC29
:10F450000B900E990098FEF717FC0A9014990098EB
:10F46000FEF712FC099015990098FEF70DFC089024
:10F4700013990098FEF708FC079012990098FEF780
:10F4800003FC069011990098FEF7FEFB0590029888
:10F49000006800900298001D0290DAF800001090B9
:10F4A0001AF1040A0C985946FEF7ACFB83460499FE
:10F4B0000B98FEF7A7FB04900A982100FEF7A2FB29
:10F4C000040009982900FEF79DFB0500089831000B
:10F4D000FEF798FB060007983900FEF793FB07003C
:10F4E00006984146FEF78EFB804605984946FEF792
:10F4F00089FB81460F990098FEF7C6FB0C900E9988
:10F500000098FEF7C1FB0B9014990098FEF7BCFB26
:10F510000A9015990098FEF7B7FB09901399009887
:10F52000FEF7B2FB089012990098FEF7ADFB07902A
:10F5300011990098FEF7A8FB069010990098FEF725
:10F54000A3FB05900298006800900298001D0290AD
:10F55000DAF800000F901AF1040A0C985946FEF7E9
:10F5600051FB834604990B98FEF74CFB04900A98D4
:10F570002100FEF747FB040009982900FEF742FB33
:10F58000050008983100FEF73DFB0600079839009A
:10F59000FEF738FB070006984146FEF733FB80462E
:10F5A00005984946FEF72EFB81460E990098FEF716
:10F5B0006BFB0C9014990098FEF766FB0B90159965
:10F5C0000098FEF761FB0A9013990098FEF75CFB28
:10F5D000099012990098FEF757FB0890119900982E
:10F5E000FEF752FB079010990098FEF74DFB06902E
:10F5F0000F990098FEF748FB05900298006800906C
:10F600000298001D0290DAF800000E901AF1040A28
:10F610000C985946FEF7F6FA834604990B98FEF7C4
:10F62000F1FA04900A982100FEF7ECFA0400099818
:10F630002900FEF7E7FA050008983100FEF7E2FA24
:10F64000060007983900FEF7DDFA070006984146E4
:10F65000FEF7D8FA804605984946FEF7D3FA814668
:10F6600014990098FEF710FB0C9015990098FEF77E
:10F670000BFB0B9013990098FEF706FB0A9012996A
:10F680000098FEF701FB099011990098FEF7FCFA2B
:10F69000089010990098FEF7F7FA07900F990098D4
:10F6A000FEF7F2FA06900E990098FEF7EDFA059033
:10F6B0000D98401E0D900C985946FEF7A3FA83460C
:10F6C00004990B98FEF79EFA04900A982100FEF721
:10F6D00099FA040009982900FEF794FA05000898A1
:10F6E0003100FEF78FFA060007983900FEF78AFA14
:10F6F000070006984146FEF785FA80460598494678
:10F70000FEF780FA81461FE517980821B0FBF1F259
:10F7100002FB11020D920D9800286CD0029800682F
:10F7200000900298001D0290DAF8000014901AF17F
:10F73000040A15990098FEF7A7FA0C9013990098FF
:10F74000FEF7A2FA0B9012990098FEF79DFA0A9024
:10F7500011990098FEF798FA099010990098FEF711
:10F7600093FA08900F990098FEF78EFA07900E9979
:10F770000098FEF789FA069014990098FEF784FA2B
:10F780000590139815901298139011981290109854
:10F7900011900F9810900E980F9014980E900C984E
:10F7A0005946FEF72FFA834604990B98FEF72AFA7A
:10F7B00004900A982100FEF725FA04000998290010
:10F7C000FEF720FA050008983100FEF71BFA060044
:10F7D00007983900FEF716FA070006984146FEF72B
:10F7E00011FA804605984946FEF70CFA81460D98B5
:10F7F000401E0D908FE70398203003901D98C0F8AD
:10F8000000B01D98001D1D9004981D9908601D985A
:10F81000001D1D901D9804601D98001D1D901D98D1
:10F8200005601D98001D1D901D9806601D98001D07
:10F830001D901D9807601D98001D1D901D98C0F813
:10F8400000801D98001D1D901D98C0F800901D9807
:10F85000001D1D901698401E1690FFF7E7BB1E98DE
:10F860000821B0FBF1F202FB110216921698002853
:10F8700033D01C980068019908601C98001D1C90EA
:10F880000198001D01900020834603988246199834
:10F89000029017981890DAF8001002980068FEF7A6
:10F8A000F3F95946FEF7AEF983460298001D02901F
:10F8B0001AF1040A1898401E189018980028EAD1E6
:10F8C0001D98C0F800B01D98001D1D900398001DE4
:10F8D00003901698401E1690C8E71B984068019048
:10F8E0001798401E80080D900D9800282BD0039883
:10F8F0000068019908600398001D03900198001D9D
:10F90000019003980068019908600398001D039016
:10F910000198001D01900398006801990860039800
:10F92000001D03900198001D019003980068019943
:10F9300008600398001D03900198001D01900D9828
:10F94000401E0D90D0E71798401E0421B0FBF1F245
:10F9500002FB11020D920D9800280DD0039800684B
:10F96000019908600398001D03900198001D019003
:10F970000D98401E0D90EEE71FB0BDE8F08F2DE909
:10F98000F04385B004000D0016005FF020085FEA28
:10F990005619CDF8008043F60043C2F200034DF63D
:10F9A000F052C0F600021D2101A800F015F8002059
:10F9B00007004F450DD2434608FB07F015EB8002C8
:10F9C00008FB07F014EB800101A8FFF719FB7F1C6F
:10F9D000EFE705B0BDE8F0832DE9F04104000D002C
:10F9E00016001F00DDF818802580A66018FA85F043
:10F9F000401E82000021380000F003F86760BDE877
:10FA0000F081002A04D0131803F8011C521EF8E7F5
:02FA100070473D
:0400000508000CBD26
:00000001FF
