:020000040800F2
:10000000E804002091010008550C00084D0C000880
:10001000510C00080D030008810F000800000000CB
:10002000000000000000000000000000DB0D0008E0
:10003000F904000800000000570C0008F90E000841
:10004000AB010008AB010008AB010008AB010008E0
:10005000AB010008AB010008AB010008AB010008D0
:10006000AB010008AB010008AB010008AB010008C0
:10007000AB010008AB010008AB010008AB010008B0
:10008000AB010008AB010008AB010008AB010008A0
:10009000AB010008AB010008AB010008AB01000890
:1000A000AB010008AB010008AB010008AB01000880
:1000B000AB010008AB010008AB010008AB01000870
:1000C000AB010008AB010008AB010008AB01000860
:1000D000AB010008AB010008AB010008AB01000850
:1000E000AB010008AB010008AB010008AB01000840
:1000F000AB010008AB010008AB010008AB01000830
:10010000AB010008AB010008AB010008AB0100081F
:10011000AB010008AB010008AB010008AB0100080F
:10012000AB010008AB010008AB010008AB010008FF
:10013000AB010008AB010008AB010008AB010008EF
:1001400000000000000000000000000000000000AF
:10015000AB010008AB010008AB010008AB010008CF
:10016000AB010008AB010008AB010008AB010008BF
:10017000AB010008AB010008AB010008DFF80CD0B0
:1001800000F018F800480047A50F0008E804002018
:100190000648804706480047FEE7FEE7FEE7FEE721
:1001A000FEE7FEE7FEE7FEE7FEE7FEE7FD0E0008DE
:1001B0007D010008064C074D06E0E06840F00103B1
:1001C00094E8070098471034AC42F6D3FFF7DAFF03
:1001D000E81000080811000838B504460B4951F82A
:1001E0002400012100F058FD684600F027FD084872
:1001F00030F81400ADF8000028208DF80300054900
:1002000051F82400694600F0D5F938BD600000209F
:100210005C0000205400002010B500F06FF90120B0
:1002200000F016F8022000F013F8032000F010F898
:10023000012000F031F8022000F02EF8032000F039
:100240002BF80020FFF7C8FF0120FFF7C5FF10BD06
:1002500038B504460D4951F82400012100F01CFD79
:10026000684600F0EBFC0A4830F81400ADF80000D6
:1002700010208DF8030002208DF80200054951F886
:100280002400694600F096F938BD000044000020C3
:100290003C0000202C000020032800DD70470649A8
:1002A00031F8101031B1044931F81010034A52F8F6
:1002B0002020116100BFF1E73C0000202C0000204D
:1002C000032800DD7047064931F8101031B10449A8
:1002D00031F81010034A52F82020516100BFF1E7B5
:1002E0003C0000202C00002010B5034607E01878E1
:1002F0000C78A04201D0002010BD5B1C491C101ED0
:10030000A2F10104A2B2F2D10120F5E700BFFEE79D
:1003100021B1026842F00102026004E002684FF677
:10032000FE731A40026070470021016041608160E5
:10033000C160016141618161C161016241628162AB
:100340007047000001460020002201F0805313B1E5
:10035000054B1A6801E0054B1A6802EA01030BB16C
:10036000012000E00020704700040240000002402D
:1003700010B50022026847F6F0739A430C6A8B6846
:1003800023430C6923434C6923438C692343CC6981
:1003900023434C6A23438C6A23431A430260CB688D
:1003A00043600B6883604B68C36010BD01684FF603
:1003B000FE72114001600021016041608160C160F6
:1003C0004B49884208D14A490839496841F00F0130
:1003D000474A083A51608AE045491431884208D1B9
:1003E00043490839496841F0F001414A083A5160EF
:1003F0007DE03F492831884208D13D4908394968A4
:1004000041F470613A4A083A516070E038493C3131
:10041000884208D136490839496841F47041344A64
:10042000083A516063E032495031884208D130497E
:100430000839496841F470212D4A083A516056E064
:100440002B496431884208D129490839496841F467
:100450007001274A083A516049E0254978318842BD
:1004600008D123490839496841F07061204A083AA7
:1004700051603CE01F49884206D1011F096841F0E4
:100480000F01021F116032E01A491431884208D16D
:100490001849091F096841F0F001164A121F11603E
:1004A00025E014492831884208D11249091F0968FA
:1004B00041F470610F4A121F116018E00D493C3180
:1004C000884208D10B49091F096841F47041094A63
:1004D000121F11600BE007495031884207D10549CE
:1004E000091F096841F47021024A121F1160704708
:1004F00008000240080402407047000010B50420C4
:1005000000F0E6FC074800680749B0FBF1F0074936
:100510000860084600684FF47A714843044908604F
:1005200010BD00007400002040420F006800002051
:100530006C00002008B5684600F080FB2820ADF86C
:10054000000001208DF8020018208DF80300694694
:10055000164800F02FF84FF40040ADF8000069464F
:10056000134800F027F84FF48050ADF80000482001
:100570008DF8030069460D4800F01CF84FF4005058
:10058000ADF8000028208DF803006946074800F008
:1005900011F84FF48040ADF8000018208DF80300EA
:1005A0006946024800F006F808BD0000000C014052
:1005B000000801402DE9F0410246002500260020F8
:1005C00000230024002791F803C00CF00F0591F8D8
:1005D00003C00CF0100CBCF1000F03D091F802C066
:1005E0004CEA050591F800C0BCF1000F31D0146849
:1005F00000202BE04FF0010C0CFA00F3B1F800C022
:100600000CEA03069E4220D183004FF00F0C0CFA37
:1006100003F7BC4305FA03FC4CEA040491F803C059
:10062000BCF1280F06D14FF0010C0CFA00FCC2F807
:1006300014C00AE091F803C0BCF1480F05D14FF097
:10064000010C0CFA00FCC2F810C0401C0828D1D3E1
:100650001460B1F800C0BCF1FF0F34DD5468002015
:100660002EE000F1080C4FF0010808FA0CF3B1F885
:1006700000C00CEA03069E4221D183004FF00F0C0C
:100680000CFA03F7BC4305FA03FC4CEA040491F8A6
:1006900003C0BCF1280F05D100F1080C08FA0CF8D2
:1006A000C2F8148091F803C0BCF1480F07D100F1E3
:1006B000080C4FF0010808FA0CF8C2F81080401C32
:1006C0000828CED35460BDE8F0810000F0B50346A1
:1006D000B3F1004F71D90025002223F00044E50951
:1006E00004F07F04220904F00F04970004FA07F6CF
:1006F000062D15D2DFE805F00305080B0E11F848AA
:100700000FE0F748001D0CE0F548083009E0F44818
:100710000C3006E0F248103003E0F148143000E0FD
:1007200000BF00BF22B9076827F00F0707603DE050
:10073000012A12D1012D0BD1042C04D9076827F00E
:10074000C007076032E0076827F0300707602DE038
:10075000076827F0F007076028E0022A04D107683D
:1007600027F47067076021E0032A04D1076827F4A3
:10077000704707601AE0042A04D1076827F470273D
:10078000076013E0052A04D1076827F470070760A3
:100790000CE0062A04D1076827F07067076005E0BF
:1007A000072A03D1076827F070470760012902D1A3
:1007B0000768374307603EE2FFE7B3F5802F6FD04D
:1007C00037DCB3F5007F6CD015DC102B6AD008DC69
:1007D000012B68D0022B7BD0042B7AD0082B72D14E
:1007E0007CE0302B70D0402B6FD0C02B6ED0B3F597
:1007F000807FF4D1E4E0B3F5804F68D00CDCB3F532
:10080000407F7CD0B3F5006F7AD0B3F5406F78D0DD
:10081000B3F5805FE3D162E0B3F5C04F72D0B3F5BA
:10082000004F57D0B3F5803F55D0B3F5003FD6D138
:1008300052E0B3F1005F76D01DDCB3F5000F73D04A
:100840000CDCB3F5002F4BD0B3F5801F49D0B3F5C6
:10085000001F6AD0B3F5800FC1D18FE1B3F1807F63
:1008600074D0B3F1007F72D0B3F1806F70D0B3F168
:10087000805FB4D166E19B4A981A934269D014DC38
:10088000B3F1804F76D0A3F180402038002872D099
:10089000B0F5787F70D0944A104400289FD18BE146
:1008A0001BE09DE042E02EE012E0B0F5802F74D016
:1008B000B0F5402F72D0B0F5A01F70D0B0F5E01F9A
:1008C0008DD17BE105E0B4E144E056E068E0C7E0AB
:1008D00000BF00BF00BF00BF00BF00BF00BF00BF20
:1008E00000BF7F482038406898437D4A203A5060D6
:1008F000012903D110464068184350609AE17FE017
:100900008EE09DE0BCE0764820384068774A104091
:10091000734A203A5060012904D11046406840F0E3
:100920000100506086E1FFE01AE135E16C482038B3
:10093000406820F030006A4A203A5060012904D112
:100940001046406840F01000506073E1A8E0B7E046
:10095000CEE032E162482038406820F03000604A42
:10096000203A5060012904D11046406840F0300020
:1009700050605FE1CAE01DE11DE159482038406840
:1009800020F0C000564A203A5060012904D1104698
:10099000406840F0400050604CE120E12DE13AE138
:1009A0004F482038406820F0C0004D4A203A50603F
:1009B000012904D11046406840F0C000506039E180
:1009C00047482038406820F44070454A203A50603B
:1009D000012904D11046406840F48070506029E13C
:1009E0003F482038406820F440703D4A203A50602B
:1009F000012904D11046406840F40070506019E1AC
:100A000037482038406820F44070354A203A50601A
:100A1000012904D11046406840F44070506009E15B
:100A20002F482038406820F440602D4A203A50601A
:100A3000012904D11046406840F400605060F9E09C
:100A400027482038406820F44060254A203A50600A
:100A5000012904D11046406840F440605060E9E04C
:100A60001F482038406820F4C0401D4A203A50609A
:100A7000012904D11046406840F480405060D9E01C
:100A800017482038406820F4C040154A203A50608A
:100A9000012904D11046406840F4C0405060C9E0CC
:100AA0000F482038406820F0E0600D4A203A50603E
:100AB000012904D11046406840F080705060B9E0D0
:100AC00007482038406820F0E060054A203A50602E
:100AD000012904D11046406840F000705060A9E040
:100AE00020000140000004402000FEFFFEFFFF7FC9
:100AF0005148406820F0E0604F4A5060012904D11D
:100B00001046406840F08060506093E04A4840687A
:100B100020F08040484A5060012904D110464068C6
:100B200040F08040506085E04348406820F000502D
:100B3000414A5060012904D11046406840F00050FD
:100B4000506077E03C48406820F080503A4A50605E
:100B5000012904D11046406840F08050506069E09F
:100B60003548406820F40000334A5060012904D120
:100B70001046406840F4000050605BE02E4840683A
:100B800020F480002C4A5060012904D110464068AE
:100B900040F4800050604DE02748406820F4001089
:100BA000254A5060012904D11046406840F40010E5
:100BB00050603FE000BF00BF00BF00BF1E48C069DB
:100BC000C3F3150290431C4AD061012906D1104697
:100BD000C069C3F315021043174AD0612AE01648D2
:100BE000C06920F4C010144AD061012904D1104614
:100BF000C06940F40020D0611CE00F48C06920F4B7
:100C0000C0100D4AD061012904D11046C06940F4DA
:100C10008010D0610EE00848C06920F4C010064A78
:100C2000D061012904D11046C06940F4C010D061E0
:100C300000E000BF00BFF0BD000001404FF6FF71B3
:100C40000180022181700421C170704700BFFEE75E
:100C500000BFFEE77047704729B1064A5269024358
:100C6000044B5A6104E0034A52698243014B5A61C2
:100C7000704700000010024029B1064AD2690243C1
:100C8000044BDA6104E0034AD2698243014BDA6122
:100C9000704700000010024029B1064A92690243E1
:100CA000044B9A6104E0034A92698243014B9A61C2
:100CB000704700000010024010B501210846FFF700
:100CC000CBFF01212D20FFF7E7FF01214FF440402A
:100CD000FFF7D2FF01214806FFF7F8FC0121024887
:100CE000FFF7F4FC10BD000062010080012806D16E
:100CF0000649496D41F03001044A516505E0034958
:100D0000496D21F03001014A5165704700100240E1
:100D10000021018041808180C180018141818181E8
:100D2000C18107210182704721B1028842F040024F
:100D3000028004E002884FF6BF731A4002807047B9
:100D40001AB183880B43838002E083888B438380BE
:100D500070470246002013890B400BB1012000E0D0
:100D6000002070478181704710B50022028802F48C
:100D700041528B8903F4004323B1838843F4807389
:100D8000838003E0838823F4807383800B884C88FE
:100D900023438C882343CC8823430C8923434C89E9
:100DA00023438C89C4F30E042343CC8923431A4381
:100DB0000280838B4FF2FF74234083830B8A03826C
:100DC00010BD21B1828842F00402828004E0828852
:100DD0004FF6FB731A4082807047704710B500F0E1
:100DE00001F810BD1CB50020019000903548006846
:100DF00040F480303349086000BF3248006800F496
:100E0000003000900198401C0190009818B901989A
:100E1000B0F5405FF1D12B48006800F4003010B10C
:100E20000120009001E0002000900098012847D1A7
:100E300024484068234948600846406820F46050D0
:100E400048600846406840F40050486008464068E2
:100E500020F4E06048600846406840F480604860E4
:100E600008464068184908401649486008464068E6
:100E700016490843134948600846006840F08070EE
:100E8000086000BF0F48006800F000700028F9D02B
:100E90000120FFF72BFF0B48406820F003000949B1
:100EA00048600846406840F00200486000BF0548BE
:100EB000406800F00C000828F9D10020FFF716FF69
:100EC0001CBD000000100240FFFFC01F000035A045
:100ED000042808D14FF0E021096941F004014FF0E6
:100EE000E022116107E04FF0E021096921F00401DF
:100EF0004FF0E022116170477047000010B51A48AA
:100F0000006840F47000184908601848006840F014
:100F10000100164908600846406815490840134911
:100F200048600846006813490840104908600846B0
:100F3000006820F480200860084640680E49084098
:100F40000A4948600846006B0C4908400749086395
:100F50004FF41F008860FFF741FF4FF00060024927
:100F60008039086010BD000088ED00E000100240EC
:100F70000C00FFE8FFFFF6FEFFFF001700FFFEFE7C
:100F800000BFFEE702E008C8121F08C1002AFAD11C
:100F900070477047002001E001C1121F002AFBD1F9
:100FA00070470000FFF788FEFFF7C4FAFFF734F937
:100FB0004448FFF7FBF94448FFF7B6F94348424974
:100FC000086043484860002088602020C8600020F6
:100FD00008618020486100208861C86108624FF480
:100FE00040504862002088623648FFF7C1F939480E
:100FF000FFF78EFE4FF44040364908804FF4827070
:10100000488000208880C880012008810020488115
:10101000102088810020C881072008822E48FFF711
:10102000A3FE4FF400402B49088000204880274849
:101030000C38FFF799FE01212748FFF7C2FE012275
:10104000114622480C38FFF77BFE01211F480C385F
:10105000FFF76AFE01212048FFF766FE01211948CB
:10106000FFF756F910E000BF02211B48FFF771FEA1
:101070000028F9D019480478601C184A10701848E4
:10108000015D1548FFF76EFE144800782028EADB62
:1010900000BF4FF40050FFF755F90028F9D0202287
:1010A0000F490B48FFF720F90E49087008460078F1
:1010B000012802D1FFF704F902E00120FFF7ECF864
:1010C00000BFFEE7440002409C0000200C380040B6
:1010D000C800002088000020003C004024000020C0
:1010E0000400002025000020081100080000002056
:1010F00088000000840F000890110008880000207C
:1011000060040000940F00080000000001020304C6
:1011100005060708090A0B0C0D0E0F101112131407
:1011200015161718191A1B1C1D1E1F200000000081
:101130000000000000000000001401400014014005
:10114000001401400000002000400080000000006A
:1011500020000000200000002000000000080140E6
:1011600000100140010000200400000010000000F9
:10117000000000000000000001000000001C4E0EF6
:101180000000000000000000010203040607080937
:040000050800017D71
:00000001FF
