:020000040800F2
:10000000B804002091010008CF040008C7040008CC
:10001000CB0400080D0300081109000800000000CF
:100020000000000000000000000000006907000858
:100030001103000800000000990500088908000865
:10004000AB010008AB010008AB010008AB010008E0
:10005000AB010008AB010008AB010008AB010008D0
:10006000AB010008AB010008AB010008AB010008C0
:10007000AB010008AB010008AB010008AB010008B0
:10008000AB010008AB010008AB010008AB010008A0
:10009000AB010008AB010008AB010008AB01000890
:1000A000AB010008AB010008AB010008AB01000880
:1000B000AB010008AB010008AB010008AB01000870
:1000C000AB010008AB010008AB01000819060008ED
:1000D00059060008AB010008AB010008AB0100089D
:1000E000AB010008AB010008AB010008AB01000840
:1000F000AB010008AB010008AB010008AB01000830
:10010000AB010008AB010008AB010008AB0100081F
:10011000AB010008AB010008AB010008AB0100080F
:10012000AB010008AB010008AB010008AB010008FF
:10013000AB010008AB010008AB010008AB010008EF
:1001400000000000000000000000000000000000AF
:10015000AB010008AB010008AB010008AB010008CF
:10016000AB010008AB010008AB010008AB010008BF
:10017000AB010008AB010008AB010008DFF80CD0B0
:1001800000F018F80048004735090008B8040020BE
:100190000648804706480047FEE7FEE7FEE7FEE721
:1001A000FEE7FEE7FEE7FEE7FEE7FEE78D08000854
:1001B0007D010008064C074D06E0E06840F00103B1
:1001C00094E8070098471034AC42F6D3FFF7DAFF03
:1001D000FC0900081C0A000838B504460B4951F810
:1001E0002400012100F0EAF9684600F064F90848AB
:1001F00030F81400ADF8000028208DF80300054900
:1002000051F82400694600F0CBF838BD5C000020AE
:10021000580000205000002010B500F07BF80120AD
:1002200000F016F8022000F013F8032000F010F898
:10023000012000F031F8022000F02EF8032000F039
:100240002BF80020FFF7C8FF0120FFF7C5FF10BD06
:1002500038B504460D4951F82400012100F0AEF9EB
:10026000684600F028F90A4830F81400ADF800009C
:1002700010208DF8030002208DF80200054951F886
:100280002400694600F08CF838BD000040000020D2
:100290003800002028000020032800DD70470649B0
:1002A00031F8101031B1044931F81010034A52F8F6
:1002B0002020116100BFF1E7380000202800002055
:1002C000032800DD7047064931F8101031B10449A8
:1002D00031F81010034A52F82020516100BFF1E7B5
:1002E000380000202800002010B5034607E01878E9
:1002F0000C78A04201D0002010BD5B1C491C101ED0
:10030000A2F10104A2B2F2D10120F5E700BFFEE79D
:100310007047000010B5042000F0A2FA07480068FA
:100320000749B0FBF1F007490860084600684FF440
:100330007A7148430449086010BD00007000002035
:1003400040420F00640000206800002008B5A02093
:10035000ADF8000001208DF8020018208DF8030090
:1003600069460D4800F01CF84FF40050ADF800004D
:1003700028208DF803006946084800F011F84FF472
:100380008040ADF8000018208DF80300694603484E
:1003900000F006F808BD000000080140000C014014
:1003A0002DE9F0410246002500260020002300240C
:1003B000002791F803C00CF00F0591F803C00CF072
:1003C000100CBCF1000F03D091F802C04CEA0505F7
:1003D00091F800C0BCF1000F31D0146800202BE070
:1003E0004FF0010C0CFA00F3B1F800C00CEA030660
:1003F0009E4220D183004FF00F0C0CFA03F7BC4350
:1004000005FA03FC4CEA040491F803C0BCF1280F80
:1004100006D14FF0010C0CFA00FCC2F814C00AE03F
:1004200091F803C0BCF1480F05D14FF0010C0CFA54
:1004300000FCC2F810C0401C0828D1D31460B1F8E9
:1004400000C0BCF1FF0F34DD546800202EE000F145
:10045000080C4FF0010808FA0CF3B1F800C00CEAE0
:1004600003069E4221D183004FF00F0C0CFA03F7D4
:10047000BC4305FA03FC4CEA040491F803C0BCF148
:10048000280F05D100F1080C08FA0CF8C2F8148006
:1004900091F803C0BCF1480F07D100F1080C4FF0F0
:1004A000010808FA0CF8C2F81080401C0828CED3C6
:1004B0005460BDE8F0814FF6FF7101800221817028
:1004C0000421C170704700BFFEE700BFFEE7704720
:1004D00008B54FF4C06000F055F823208DF80000F7
:1004E00001208DF8010002208DF8020001208DF816
:1004F0000300684600F00EF824208DF8000000206C
:100500008DF8010001208DF80200684600F002F825
:1005100008BD000070B5002100230F22C47804B389
:10052000154C246804F4E064C4F5E064210AC1F1C8
:100530000403CA40447804FA03F184781440214348
:1005400009010E4C0678A155047804F01F0501241A
:10055000AC4005786D11AD0005F1E025C5F800410E
:1005600009E0047804F01F050124AC40044D06782E
:10057000761145F8264070BD0CED00E000E400E087
:1005800080E100E002490143024A11607047000027
:100590000000FA050CED00E07047000029B1064AA2
:1005A000D2690243044BDA6104E0034AD269824310
:1005B000014BDA61704700000010024029B1064A81
:1005C00092690243044B9A6104E0034A92698243B0
:1005D000014B9A61704700000010024010B50121E4
:1005E00041F22C00FFF7EAFF01218803FFF7D6FF55
:1005F00010BD0000012806D10649496D41F03001C7
:10060000044A516505E00349496D21F03001014A72
:10061000516570470010024010B571210B4800F081
:1006200047F890B10A480478601C094A10700948DC
:10063000015D064800F069F805480078202804D1DB
:1006400000227121014800F04DF810BD003001403A
:10065000200000200000002010B5064800F052F8ED
:10066000C1B205480478601C034A10700348015564
:1006700010BD00000038004021000020960000203E
:100680000021018041808180C1800181418181817F
:10069000C18107210182704721B1028842F04002E6
:1006A000028004E002884FF6BF731A400280704750
:1006B000F0B50246002000240023002501F00F07BA
:1006C0000126BE40B4B20B1101269E40B3B29688FB
:1006D00006EA03051689264016B10DB1012000E097
:1006E0000020F0BD30B5002400230C110125A540E9
:1006F000ABB21AB185881D43858002E085889D4391
:10070000858030BD0146888970478181704710B56A
:100710000022028802F441528B8903F4004323B182
:10072000838843F48073838003E0838823F4807399
:1007300083800B884C8823438C882343CC882343B5
:100740000C8923434C8923438C89C4F30E0423432F
:10075000CC8923431A430280838B4FF2FF742340DA
:1007600083830B8A038210BD704710B500F002F836
:1007700010BD00001CB500200190009035480068B5
:1007800040F480303349086000BF3248006800F40C
:10079000003000900198401C0190009818B9019811
:1007A000B0F5405FF1D12B48006800F4003010B183
:1007B0000120009001E0002000900098012847D11E
:1007C00024484068234948600846406820F4605047
:1007D00048600846406840F4005048600846406859
:1007E00020F4E06048600846406840F4806048605B
:1007F000084640681849084016494860084640685D
:1008000016490843134948600846006840F0807064
:10081000086000BF0F48006800F000700028F9D0A1
:100820000120FFF7E7FE0B48406820F0030009496C
:1008300048600846406840F00200486000BF054834
:10084000406800F00C000828F9D10020FFF7D2FE24
:100850001CBD000000100240FFFFC01F000035A0BB
:10086000042808D14FF0E021096941F004014FF05C
:10087000E022116107E04FF0E021096921F0040155
:100880004FF0E022116170477047000010B51A4820
:10089000006840F47000184908601848006840F08B
:1008A0000100164908600846406815490840134988
:1008B0004860084600681349084010490860084627
:1008C000006820F480200860084640680E4908400F
:1008D0000A4948600846006B0C490840074908630C
:1008E0004FF41F008860FFF740FF4FF0006002499F
:1008F0008039086010BD000088ED00E00010024063
:100900000C00FFE8FFFFF6FEFFFF001700FFFEFEF2
:1009100000BFFEE702E008C8121F08C1002AFAD192
:1009200070477047002001E001C1121F002AFBD16F
:1009300070470000FFF752FEFFF7CAFDFFF706FD04
:10094000FFF76AFC2648FFF79BFE4FF4404024491E
:1009500008804FF48270488000208880C880012081
:10096000088140024881102088810020C88107202A
:1009700008821C48FFF7CBFE4FF40040184908805E
:10098000002048801848FFF7C2FE01227121154857
:10099000FFF7A8FE012260211348FFF7A3FE012103
:1009A0001148FFF779FE01210E48FFF775FE00BFE1
:1009B0000E4800782028FBDB20220D490D48FFF768
:1009C00093FC0D49087008460078012802D1FFF712
:1009D00077FC02E00120FFF75FFC00BFFEE70000AC
:1009E0008400002000300140003800402100002039
:1009F0000000002096000020220000201C0A0008B1
:100A0000000000208400000014090008A00A00086B
:100A100084000020340400002409000801020304BB
:100A200005060708090A0B0C0D0E0F1011121314FE
:100A300015161718191A1B1C1D1E1F200000000078
:100A400000000000000000000014014000140140FC
:100A50000014014000000020004000800000000061
:100A600020000000200000002000000000080140DD
:100A700000100140010000200400000010000000F0
:100A8000000000000000000001000000001C4E0EED
:100A9000000000000000000001020304060708092E
:040000050800017D71
:00000001FF
