:020000040800F2
:10000000501F0020690B0008A50A0008A70A000875
:10001000A90A0008AB0A0008AD0A000800000000A9
:10002000000000000000000000000000AF0A00080F
:10003000B10A000800000000B30A0008B50A000871
:10004000930B0008970B00089B0B00089F0B000800
:10005000B70A0008A30B0008A70B0008AB0B0008A9
:10006000AF0B0008B30B0008B70B0008BB0B000870
:10007000BF0B0008C30B0008C70B0008CB0B000820
:10008000CF0B0008D30B0008D70B0008DB0B0008D0
:10009000DF0B0008E30B0008E70B0008EB0B000880
:1000A000EF0B0008F30B0008F70B0008FB0B000830
:1000B000FF0B0008030C0008070C00080B0C0008DD
:1000C0000F0C0008130C0008170C00081B0C00088C
:1000D0001F0C0008230C0008270C00082B0C00083C
:1000E0002F0C0008330C0008370C0008000000003B
:1000F0000000000000000000000000000000000000
:10010000000000003B0C00083F0C0008000000004D
:10011000430C0008470C000800000000000000002D
:100120004B0C00084F0C0008530C0008570C00083B
:1001300000000000000000000000000000000000BF
:100140000000000000000000000000005B0C000840
:1001500000000000000000005F0C0008630C0008B5
:10016000670C000800000000000000006B0C000895
:1001700080B500F091F8012000F041F8022000F075
:100180003EF8032000F03BF8012000F059F802206F
:1001900000F056F8032000F053F8002000F004F8B7
:1001A000012000F001F801BD10B582B0040001216A
:1001B0006448E4B250F8240000F0E2F800A800F02F
:1001C000A4F96148E4B230F81400ADF8000028202A
:1001D0008DF8030000A95D48E4B250F8240000F057
:1001E000F9F813BD10B504005748E4B230F8141004
:1001F0005648E4B250F8240000F08FF910BD10B555
:1002000082B0040001215248E4B250F8240000F00A
:10021000B7F800A800F079F94E48E4B230F81400BD
:10022000ADF8000010208DF8030002208DF80200C8
:1002300000A94948E4B250F8240000F0CBF813BDFF
:10024000C0B204280EDA4349C0B231F810100029B8
:1002500008D04049C0B231F810103F4AC0B252F83D
:10026000202011617047C0B2042814DA3949C0B2A5
:1002700031F8101000290ED03749C0B251F82010C3
:10028000C968344AC0B232F810205140324AC0B274
:1002900052F82020D160704780B57FF0040000F054
:1002A0007FF92E4800683BF0F9FA2D493BF09AF9A6
:1002B0002C4908602B4801682B483AF061FB2B4918
:1002C000086001BD38B50500ADB2002D37D0ADB224
:1002D000B5F5FA7F0BDD2548016828483AF050FB58
:1002E0003BF0B8FA22490860B5F5FA750DE0ADB2F9
:1002F00028003BF0D3FA1D4909683AF041FB3BF076
:10030000A9FA1B490860002005000020194908606F
:100310001948006850F00100174908601648006845
:10032000040014F001100128F8D0134800684008B8
:1003300040001149086000200E490860C4E731BD43
:1003400000000000300A0020380A0020280A00209F
:10035000100A0020200A0020000A00203C0A002089
:100360000024F44A440F002000007A44480F002083
:1003700014E000E018E000E010E000E00000FA43C4
:10038000C9B2002907D0DFF8442012680243DFF821
:100390003C301A6006E0DFF8342012688243DFF850
:1003A0002C301A607047C9B2002907D0DFF820202E
:1003B00012680243DFF818301A6006E0DFF81020F8
:1003C00012688243DFF808301A6070471810024044
:1003D0001C100240F0B50027002200230024002555
:1003E000002691F803C01CF00F0C674691F803C07B
:1003F0005FEACC6C03D591F802C05CEA070791F87C
:1004000000C05FEA0C6C3AD0D0F800C065465FF0DF
:10041000000C6346082B31D25FF0010C1CFA03FC80
:100420006446B1F800C014EA0C0C6246A24223D123
:100430005FEA830C64465FF00F0C1CFA04FC66460E
:10044000B54317FA04FC5CEA050591F803C0BCF15A
:10045000280F06D15FF0010C1CFA03FCC0F814C091
:100460000AE091F803C0BCF1480F05D15FF0010C20
:100470001CFA03FCC0F810C05B1CCBE70560B1F8A8
:1004800000C0BCF1FF0F3FDDD0F804C065465FF04F
:10049000000C6346082B36D25FF0010C13F1080EF6
:1004A0001CFA0EFC6446B1F800C014EA0C0C62465B
:1004B000A24226D15FEA830C64465FF00F0C1CFA5F
:1004C00004FC6646B54317FA04FC5CEA050591F89E
:1004D00003C0BCF1280F07D15FF0010C13F1080E27
:1004E0001CFA0EFCC0F814C091F803C0BCF1480F10
:1004F00007D15FF0010C13F1080E1CFA0EFCC0F8D6
:1005000010C05B1CC6E74560F0BD4FF6FF7101806F
:10051000022181700421C17070470200002093689D
:1005200089B20B4202D00123180001E00023180019
:10053000C0B2704770B4002400220F23C178002994
:1005400022D01F49096811F4E061D1F5E061090A80
:100550000C00D4F104010A0019000B00E3404178BB
:1005600091400C00817819400C432401154905780D
:100570006C540121057815F01F05A940124D06782D
:10058000761145F8261009E00121057815F01F05C0
:10059000A9400E4D0678761145F8261070BC7047BC
:1005A000042806D10A49096851F00401084A11607B
:1005B00005E00749096831F00401054A11607047F8
:1005C0000CED00E000E400E000E100E080E100E08C
:1005D00010E000E0816807E002681168536889183C
:1005E0005B18C36008320260C2689142F4D04A1CB2
:1005F00082600878704738B504460D46A068E16807
:10060000884212D120686168884208BF00F0C3F8B0
:100610002068227C016802B14944A16042685218F6
:10062000E260083091422060ECD0A068401CA060DD
:1006300000F8015D31BD2DE9F0418AB000F10801FB
:1006400005910268520801EBC20106910021079151
:1006500008910168490800EBC10108310091017956
:1006600001F001018DF8101040680099400801EB7D
:10067000C000019000200290039084E005A8FFF7DD
:10068000A9FF044614F0030603D105A8FFF7A2FF53
:10069000C61C25090F2D1BD105A8FFF79BFF00F1F4
:1006A0000F0515E005980168081805990790496835
:1006B000081808900598083005900798089988420E
:1006C000F0D0401C079010F8011D00A8FFF793FF21
:1006D000761EF2D1002D51D005A8FFF77BFF06460C
:1006E000A00800F00300032804BF05A8FFF772FF6D
:1006F000DDF800800299039F06EB002008E0A8F1D6
:100700000808A8F10801801A0A6849688F18394654
:1007100058F8082C8A1A8242F1D30C1AAE1C2DD03C
:10072000BC4206D158F8044B58F8040B0719BC42D8
:10073000F8D00298039914F8015B884217D1009809
:100740000199884208BF00F026F8009800689DF8DB
:100750001010029009B1484402900099029849682B
:10076000009A09180832884203910092E7D0029853
:10077000401C0290761E00F8015DD1D102980399C9
:1007800088427FF47BAF0198009981427FF476AF75
:100790000AB0BDE8F081012000F000B880B5C04685
:1007A000C0462623C0F2020319461820ABBEFBE761
:1007B000F8B52448050024480600FFF7D9FC00F0EE
:1007C00049F80020FFF70EFD002807D10220FFF7AF
:1007D0004AFD4FF49670FFF775FDF2E70220FFF730
:1007E0002FFD0020FFF7FEFC0028FAD04FF4A07286
:1007F000310028003AF0BCFF4FF4A07212491348B0
:1008000000F042F80700380011493BF035F803D2F8
:100810007FF00500040001E00020040064B214F140
:10082000060F07D10120FFF71EFD4FF4FA70FFF706
:1008300049FDF3E70320FFF716FD4FF4FA70FFF7C9
:1008400041FDEBE700000020440A002000050020E5
:1008500000000C4380B500F07FF801214FF4806068
:1008600000F08EF800F083F804208DF800000320DB
:100870008DF8010003208DF8020001208DF803009F
:1008800000A8FFF757FE01BD2DE9F04F83B004002B
:100890000D009246002600200090002007005745DA
:1008A00037D214EB87008046D8F800008146DFF885
:1008B000A000814501D1002047E015EB870080466C
:1008C000D8F800008146DFF88800814501D100207A
:1008D0003BE054F8271054F827003AF051F8310063
:1008E0003AF0BAF8060054F8270055F827103AF005
:1008F000F5F8834654F8270055F827103AF0EEF83B
:1009000059463AF03DF800993AF0A6F800907F1C5D
:10091000C5E700A88046D8F800008146DFF830001F
:10092000814501D1002010E0300000993AF05AFED4
:100930003AF068FF3AF0C1FF0022DFF818303AF0D1
:1009400009FB3AF0CDFE01900198BDE8FE8F000052
:100950000000C07F00002440DFF84C00DFF84C109E
:100960000860DFF84C00DFF8441008607047DFF8DB
:100970004400006850F08000DFF8381008607047CD
:10098000C9B2002907D0DFF82C2012680243DFF833
:1009900024301A6006E0DFF81C2012688243DFF87A
:1009A00014301A607047000023016745042002409C
:1009B000AB89EFCD1020024080B501215FF080505F
:1009C000FFF7F1FC1C48007850F004001A49087049
:1009D00000215FF08050FFF7E6FC1848006850F0F7
:1009E0000100164908601648006816490840144975
:1009F00008601248006814490840104908600F4810
:100A0000006830F480200D4908600D4800680F49E7
:100A100008400B4908600E4800680E4908400C4920
:100A200008605FF41F000C49086000F019F85FF0DF
:100A300000600A49086001BD50700040001002408B
:100A4000041002400C00FFE8FFFFF6FEFFFF001756
:100A50003010024000FFFEFE0810024008ED00E0EA
:100A6000704719E050F8041BCB0744BFA9F10103FC
:100A70005918121F0023042A41F8043BF9D25FEAF7
:100A8000827C0B4604D54FF0000CA1F800C09B1CE3
:100A9000D10744BF0021197050F8042B002AE1D17E
:100AA000704700007047FEE7FEE7FEE7FEE770478D
:100AB00070477047704780B5054800684FF4FA707A
:100AC000FFF700FC024800680149086001BD000012
:100AD0000C20024010B540F22E01C0F20001794412
:100AE000A1F10C0140F25404C0F200047C44A4F1D2
:100AF0000C0404E00A68081D511888470146A14209
:100B0000F8D110BD5FFFFFFFF00000000070002073
:100B100008050000440A0020000000001BFBFFFF46
:100B2000020000000200000046010000BF010000BA
:100B300000000020440A000000F00BF8002801D05B
:100B4000FFF7C8FF0020C046C046FFF731FE00F0A7
:100B500002F80120704700F001B80000074638464F
:100B6000FFF71CFEFBE700000148804701480047F3
:100B7000B9090008790B0008C046C046C046C04607
:100B8000FFF7DAFF40F64020C2F2000000F000B8A4
:100B90007047FFF7FEBFFFF7FEBFFFF7FEBFFFF78F
:100BA000FEBFFFF7FEBFFFF7FEBFFFF7FEBFFFF779
:100BB000FEBFFFF7FEBFFFF7FEBFFFF7FEBFFFF769
:100BC000FEBFFFF7FEBFFFF7FEBFFFF7FEBFFFF759
:100BD000FEBFFFF7FEBFFFF7FEBFFFF7FEBFFFF749
:100BE000FEBFFFF7FEBFFFF7FEBFFFF7FEBFFFF739
:100BF000FEBFFFF7FEBFFFF7FEBFFFF7FEBFFFF729
:100C0000FEBFFFF7FEBFFFF7FEBFFFF7FEBFFFF718
:100C1000FEBFFFF7FEBFFFF7FEBFFFF7FEBFFFF708
:100C2000FEBFFFF7FEBFFFF7FEBFFFF7FEBFFFF7F8
:100C3000FEBFFFF7FEBFFFF7FEBFFFF7FEBFFFF7E8
:100C4000FEBFFFF7FEBFFFF7FEBFFFF7FEBFFFF7D8
:100C5000FEBFFFF7FEBFFFF7FEBFFFF7FEBFFFF7C8
:100C6000FEBFFFF7FEBFFFF7FEBFFFF7FEBF12009C
:100C700001102AD9AB173F1504C2BD15EF433E0042
:100C800000803F09B8D53EF304B53E72ADA03FD712
:100C9000B35D3F5E83EC3EB2E4A83F8D65973F2F86
:100CA000310821102118212021282130213821400C
:100CB000214821502158113012800812BF10123DD6
:100CC0001812BE0F12BF2812BE3012BE3812BF401B
:100CD00012BF4812BE5012BF5812BF303108211047
:100CE000211821202128213021382140214821505C
:100CF0002158F152C0F2FF00C0D1C0FAFF8040F588
:100D0000BE80F1CCC02120109180878DBAE95C496A
:100D1000BAEDEC4FB94A1F8738A9AB083B4AC671F8
:100D20003BB6D3CF3AE03B2CBBF5BBF8BB059C43AD
:100D3000BC57FE0DBC6CC9113C5159303D3A92C7AD
:100D40003DB037323EDD49893E1EE2BF3E478AFA5A
:100D50003EE6371A3F2AB4343F5FFD4B3F89205FA0
:100D60003F86836D3F27DD773FE2537E3F7E2780BE
:100D70003F1D1A7E3FEED8773FDAFA6C3FC32E5EF6
:100D80003F75954B3F6660353F5E291C3F9453008D
:100D90003F1152C43E92BB843E5C2106C8130080C2
:100DA0000812BE1012BE1812BE2012BF2812BF3089
:100DB00012BF3812BF4012BF4812BF503006BFE00A
:100DC000607EBFAA408008211021182120212821FF
:100DD000302138214021482150215821F821682113
:100DE000702178218021882190219821A021A8219B
:100DF000B01158123F603108F1FFC0F18AC0F2FF14
:100E000000C0D1C0F6F3808021487002001001407C
:100E100004210F9104400800000400080020000095
:0D0E200008205204181301001533127A2225
:020000040803EF
:10A000002DE9FF4F9BB01B98406803901B98806818
:10A0100019901B98008817901B984068179910EBAF
:10A020008100001F01901E98C00816901698002805
:10A0300000F015841C980068019908601C98001DA8
:10A040001C900198001D01901C98006801990860FF
:10A050001C98001D1C900198001D01901C98006820
:10A06000019908601C98001D1C900198001D01902A
:10A070001C980068019908601C98001D1C900198AC
:10A08000001D019000208346002004900020040061
:10A090000020050000200600002007000020804668
:10A0A0000020814603988246199802901C98006807
:10A0B000019908601C98001D1C900198001D0190DA
:10A0C0001C980068019908601C98001D1C9001985C
:10A0D000001D01901C980068019908601C98001DE3
:10A0E0001C900198001D01901C980068019908605F
:10A0F0001C98001D1C900198001D0190DAF80000CA
:10A1000015901AF1040ADAF8000013901AF1040A03
:10A11000DAF8000012901AF1040ADAF8000011903F
:10A120001AF1040ADAF8000010901AF1040ADAF8B9
:10A1300000000F901AF1040ADAF800000E901AF1EC
:10A14000040A1798C0080D900D98002800F0DC82D2
:10A150000298006800900298001D0290DAF8000052
:10A1600014901AF1040A1599009800F009FC0C905B
:10A170001399009800F004FC0B901299009800F0DD
:10A18000FFFB0A901199009800F0FAFB09901099D2
:10A19000009800F0F5FB08900F99009800F0F0FB94
:10A1A00007900E99009800F0EBFB06901499009828
:10A1B00000F0E6FB05900298006800900298001DF0
:10A1C0000290DAF8000015901AF1040A0C9859462A
:10A1D00000F042FC834604990B9800F03DFC04908B
:10A1E0000A98210000F038FC04000998290000F0CA
:10A1F00033FC05000898310000F02EFC060007989B
:10A20000390000F029FC07000698414600F024FCC4
:10A2100080460598494600F01FFC81461399009836
:10A2200000F0AEFB0C901299009800F0A9FB0B9087
:10A230001199009800F0A4FB0A901099009800F082
:10A240009FFB09900F99009800F09AFB08900E99D7
:10A25000009800F095FB07901499009800F090FB8F
:10A2600006901599009800F08BFB05900298006805
:10A2700000900298001D0290DAF8000013901AF185
:10A28000040A0C98594600F0E7FB834604990B98A2
:10A2900000F0E2FB04900A98210000F0DDFB0400CE
:10A2A0000998290000F0D8FB05000898310000F05B
:10A2B000D3FB06000798390000F0CEFB0700069894
:10A2C000414600F0C9FB80460598494600F0C4FBB2
:10A2D00081461299009800F053FB0C901199009858
:10A2E00000F04EFB0B901099009800F049FB0A908B
:10A2F0000F99009800F044FB09900E99009800F027
:10A300003FFB08901499009800F03AFB07901599CC
:10A31000009800F035FB06901399009800F030FB90
:10A3200005900298006800900298001D0290DAF8EB
:10A33000000012901AF1040A0C98594600F08CFBA8
:10A34000834604990B9800F087FB04900A9821003B
:10A3500000F082FB04000998290000F07DFB050055
:10A360000898310000F078FB06000798390000F0EB
:10A3700073FB07000698414600F06EFB8046059887
:10A38000494600F069FB81461199009800F0F8FAFF
:10A390000C901099009800F0F3FA0B900F99009828
:10A3A00000F0EEFA0A900E99009800F0E9FA099090
:10A3B0001499009800F0E4FA08901599009800F0BC
:10A3C000DFFA07901399009800F0DAFA06901299D4
:10A3D000009800F0D5FA0590029800680090029865
:10A3E000001D0290DAF8000011901AF1040A0C988E
:10A3F000594600F031FB834604990B9800F02CFB82
:10A4000004900A98210000F027FB04000998290015
:10A4100000F022FB05000898310000F01DFB06004B
:10A420000798390000F018FB07000698414600F035
:10A4300013FB80460598494600F00EFB81461099B3
:10A44000009800F09DFA0C900F99009800F098FA8F
:10A450000B900E99009800F093FA0A9014990098C6
:10A4600000F08EFA09901599009800F089FA08908A
:10A470001399009800F084FA07901299009800F060
:10A480007FFA06901199009800F07AFA05900298E8
:10A49000006800900298001D0290DAF80000109009
:10A4A0001AF1040A0C98594600F0D6FA834604992A
:10A4B0000B9800F0D1FA04900A98210000F0CCFA31
:10A4C00004000998290000F0C7FA05000898310037
:10A4D00000F0C2FA06000798390000F0BDFA070044
:10A4E0000698414600F0B8FA80460598494600F0C3
:10A4F000B3FA81460F99009800F042FA0C900E9939
:10A50000009800F03DFA0B901499009800F038FA8A
:10A510000A901599009800F033FA09901399009861
:10A5200000F02EFA08901299009800F029FA07908E
:10A530001199009800F024FA06901099009800F004
:10A540001FFA05900298006800900298001D029082
:10A55000DAF800000F901AF1040A0C98594600F03E
:10A560007BFA834604990B9800F076FA04900A98D7
:10A57000210000F071FA04000998290000F06CFA3B
:10A5800005000898310000F067FA060007983900C6
:10A5900000F062FA07000698414600F05DFA804636
:10A5A0000598494600F058FA81460E99009800F047
:10A5B000E7F90C901499009800F0E2F90B901599C6
:10A5C000009800F0DDF90A901399009800F0D8F98E
:10A5D00009901299009800F0D3F908901199009809
:10A5E00000F0CEF907901099009800F0C9F9069094
:10A5F0000F99009800F0C4F9059002980068009047
:10A600000298001D0290DAF800000E901AF1040A78
:10A610000C98594600F020FA834604990B9800F0F4
:10A620001BFA04900A98210000F016FA0400099819
:10A63000290000F011FA05000898310000F00CFA2A
:10A6400006000798390000F007FA0700069841460F
:10A6500000F002FA80460598494600F0FDF981466F
:10A660001499009800F08CF90C901599009800F05E
:10A6700087F90B901399009800F082F90A901299CB
:10A68000009800F07DF909901199009800F078F990
:10A6900008901099009800F073F907900F990098AE
:10A6A00000F06EF906900E99009800F069F9059097
:10A6B0000D98401E0D900C98594600F0CDF9834638
:10A6C00004990B9800F0C8F904900A98210000F052
:10A6D000C3F904000998290000F0BEF905000898A4
:10A6E000310000F0B9F906000798390000F0B4F91C
:10A6F00007000698414600F0AFF9804605984946A4
:10A7000000F0AAF981461FE517980821B0FBF1F285
:10A7100002FB11020D920D9800286CD0029800687F
:10A7200000900298001D0290DAF8000014901AF1CF
:10A73000040A1599009800F023F90C9013990098D9
:10A7400000F01EF90B901299009800F019F90A9088
:10A750001199009800F014F909901099009800F0F0
:10A760000FF908900F99009800F00AF907900E99D8
:10A77000009800F005F906901499009800F000F98F
:10A7800005901398159012981390119812901098A4
:10A7900011900F9810900E980F9014980E900C989E
:10A7A000594600F059F9834604990B9800F054F982
:10A7B00004900A98210000F04FF90400099829003C
:10A7C00000F04AF905000898310000F045F906004C
:10A7D0000798390000F040F907000698414600F05C
:10A7E0003BF980460598494600F036F981460D98B8
:10A7F000401E0D908FE70398203003901D98C0F8FD
:10A8000000B01D98001D1D9004981D9908601D98AA
:10A81000001D1D901D9804601D98001D1D901D9821
:10A8200005601D98001D1D901D9806601D98001D57
:10A830001D901D9807601D98001D1D901D98C0F863
:10A8400000801D98001D1D901D98C0F800901D9857
:10A85000001D1D901698401E1690FFF7E7BB1E982E
:10A860000821B0FBF1F202FB1102169216980028A3
:10A8700033D01C980068019908601C98001D1C903A
:10A880000198001D01900020834603988246199884
:10A89000029017981890DAF800100298006800F0FB
:10A8A0006FF8594600F0D8F883460298001D0290D0
:10A8B0001AF1040A1898401E189018980028EAD136
:10A8C0001D98C0F800B01D98001D1D900398001D34
:10A8D00003901698401E1690C8E71B984068019098
:10A8E0001798401E80080D900D9800282BD00398D3
:10A8F0000068019908600398001D03900198001DED
:10A90000019003980068019908600398001D039066
:10A910000198001D01900398006801990860039850
:10A92000001D03900198001D019003980068019993
:10A9300008600398001D03900198001D01900D9878
:10A94000401E0D90D0E71798401E0421B0FBF1F295
:10A9500002FB11020D920D9800280DD0039800689B
:10A96000019908600398001D03900198001D019053
:10A970000D98401E0D90EEE71FB0BDE8F08F00006F
:10A98000FF2212EAD05C1DBF12EAD15394459342D4
:10A990002BE09C44D30780EA01021A4043EA0020DE
:10A9A00043EA0121A1FB0030410038BF40007CF1A7
:10A9B0007F010BDBFE294ADA5B0842EAC15153EA08
:10A9C000006373F1004C51EB10207047D1F1080C7B
:10A9D000DCF120012FDB5B0810FA01F10B4373F16E
:10A9E000004120FA0CF05041704794451CBF02EA28
:10A9F000D153934280EA010202F000421DD0400090
:10AA000019D0490017D05BB9634514D00902B1FAD7
:10AA100081F39940BCEB030CC00140F00040C1E75A
:10AA20000002B0FA80FC10FA0CF0B3EB0C0CC90178
:10AA300041F00041B6E71000704740000AD04900DD
:10AA400008D010F1807F94BF11F1807F02E042F0C6
:10AA5000FF407047D043704790EA010F44BF81F038
:10AA6000004100F043B800BF421A3CBF801A891869
:10AA70004FF0004CC0F3C752FF2A24D0C1F3C75394
:10AA800013B3D21AD2F1190327DD4CEA01214CFA93
:10AA900003F321EA0303D140C20D4CEA0020401821
:10AAA00034BF20EA0C004CEA5000D20553EA0063A0
:10AAB00073EB0C0C52EB1020420012F1807F38BF78
:10AAC0007047C00DC0057047490212BF9A4200EBA3
:10AAD0005120F8E7D2F11703D9D5704790EA010F5A
:10AAE00044BF81F00041FFF7BFBF00BF431A4FF0E2
:10AAF00000423EBF5340C01AC91800BFD3095FEAE5
:10AB0000D05C13EB400F34BFB3EB410F40E07CEB64
:10AB1000D1530CD342EA012122D8D1EB402009D3F2
:10AB2000400A28BF5FEA500140EBCC507047401A02
:10AB300015D04002B0FA80F2521C9040400A4FEA11
:10AB40003C23B3EB026384BF00EB730007E040F4E7
:10AB500000001A16DB07C2F10102D040184370470B
:10AB6000182BFCDC31FA03F202FA03F3591A38BF4E
:10AB700042F00102D2EB40203CBF4000ACF1010C9E
:10AB80005FEACC5CC20572F100414CEB502070478B
:10AB900013EB400F0FD24B0009D0ACEBD153022B7B
:10ABA00003DB4902172BDDDD70479143401A430058
:10ABB000D5D10020704713EB410FD0D36FF00000C8
:10ABC00070472DE9F64D03B4C1F30A5040F2FF710E
:10ABD000884284B00CD105980027000304BF049874
:10ABE000002802D10598002819D4DDE9040174E198
:10ABF00001280DDA04A800F073F9012808DBC5F775
:10AC0000C1FF2221016000200021CFF6F07164E134
:10AC1000059A40F2FE3161F31E520592471A0598DB
:10AC2000002808D5C5F7AEFF212101604FF0FF30A5
:10AC30006FF0004151E1DDE9040143F6CD324AF203
:10AC40009E03C6F27F62C3F6E67300F06BF909D289
:10AC5000DDE9042300204FF0804100F07BF9CDE9CD
:10AC600004017F1EDDE9042300210020CBF6F071F2
:10AC700000F042FA0D46DDE90423044600210020DD
:10AC8000C3F6F07100F038FA02460B46204629461A
:10AC900000F0A6FA82468B4652465B4600F05AF90F
:10ACA000064688464DF6F7604FF6D801CBF6297078
:10ACB000C3F6C2713246434600F04CF94BF2F4320F
:10ACC00049F61A13CCF6FE42C3F6C37300F014FA29
:10ACD0003246434600F03EF94CF6623244F26F636E
:10ACE000CDF66812C3F6C77300F006FA3246434643
:10ACF00000F030F94CF6C61247F2C413CDF612221A
:10AD0000C3F6CC7300F0F8F93246434600F022F95E
:10AD10004EF64A1244F62413C9F28A42C3F6D2739D
:10AD200000F0EAF93246434600F014F945F6F772AE
:10AD300049F69913C9F69712C3F6D97300F0DCF9F6
:10AD40003246434600F006F945F2BC5245F25553EF
:10AD5000C5F25552C3F6E57300F0CEF932464346CC
:10AD600000F0F8F802460B462046294600F064FB46
:10AD700052465B4600F0EEF80646884638B200F0D0
:10AD80001BFC074607988B4610BB4BF69E4047F6C8
:10AD90001C51CFF29A70C3F67F613A465B4600F0D1
:10ADA000D9F83246434600F047FB22462B4600F0D6
:10ADB000A3F90D46044642F642614FF04040C3F607
:10ADC000E6713A465B4600F0C5F822462B4682E023
:10ADD00001284EDB4CF67B310020C3F6DB712246A6
:10ADE0002B4600F0B7F8CDE902014AF2AB6042F21F
:10ADF000E561C0F63260C3F6556122462B4600F08D
:10AE0000A9F8CDE900014CF27C4042F2DE71C7F6B0
:10AE1000BC70C3F674613A465B4600F09BF804468A
:10AE20000D464EF20E524CF67B3330464146C1F28F
:10AE30002652C3F6DB7300F08DF802460B4620461F
:10AE4000294600F0F9FADDE9002300F055F9DDE9C3
:10AE5000022300F051F90D46044644F2134100204C
:10AE6000C3F6D3713A465B4600F074F822462B468F
:10AE700031E041F247514FF0C040C3F6F77122462E
:10AE80002B4600F067F8CDE900014DF644704AF614
:10AE90000B61CFF65D00C3F6546122462B4600F0ED
:10AEA00059F804460D4648F2FE2041F24751C6F2D9
:10AEB0002B50C3F6F7713246434600F04BF802467A
:10AEC0000B462046294600F0B7FADDE9002300F0E2
:10AED00013F93A465B4600F00FF908B0BDE8F08D73
:10AEE00030B4436803F0004201211B031B0B436095
:10AEF00004BF0368002B08D10DE00368DD0F45EAAD
:10AF0000440444605B000360491E4468E302F4D5D6
:10AF100023031B0B436043681A434260084630BC5E
:10AF2000704700004FF4001C1CEB410F94BF1CEB5A
:10AF3000430F09E041EA030C50EA4C0C52EA0C0CB6
:10AF400003D2994208BF9042704714BF8B4282429D
:10AF500070470000B0B581EA030C0CF0004C40F2E1
:10AF6000FF7515EA11541DBF15EA1357AC42AF42E5
:10AF700039E0E41923EA455343F48013C90241F050
:10AF8000004141EA505EC7021100A7FB02020028FF
:10AF90004FF00000EEFB01204FF00001E3FB072122
:10AFA00018BF42F00102401800214941E3FB0E01A5
:10AFB000A4F580640F0302D252004041494154F18C
:10AFC00001046CDD470872F1004250F1000051EBC2
:10AFD0000451A1F580115CBF41EA0C01B0BD4CEAFF
:10AFE00005510020B0BD05EA1357AC4214BFAF4273
:10AFF00041E050EA410E1CBF52EA430E02E06146B6
:10B000000020B0BD24423C441BD15FEA070EF6D0BD
:10B01000090302BF01460020AEF1140EB1FA81F718
:10B02000AEEB070401FA07FE0C37C7F1200100FA66
:10B0300007F7C8404EEA000E23EA455343F4801355
:10B04000A2E733F00043B3FA83F704BFB2FA82FEFB
:10B0500077440B3FE41BB7F1200E2FBF02FA0EF32B
:10B06000BB40C7F1200E22FA0EFE38BF43EA0E03A2
:10B07000BA40641C82E750EA410E14BF52EA430E04
:10B080006FF000014FF4001717EB430F8ABF19460A
:10B0900017EB410FB5E74CEA05510020B0BDD4F1E4
:10B0A0000104B4F120070FDAC4F12007520828BFC9
:10B0B00042F0010210FA07F501FA07F7E1BF2A434F
:10B0C000E0403843E1400FE0352C98DCC7F1200424
:10B0D00052EA400220FA07F218BF42F0010231FAA8
:10B0E00007F0A1400A43002172F1004250F1000034
:10B0F00051EB0C01B0BD0000F0B44FF0004591EAF7
:10B10000030C44BF6B4000F0A1B900BF841A71EB7F
:10B11000030603D2001BB141121973414FF4001C06
:10B120001CEB410F34BF7CEB430443E00C0DA4EB5C
:10B130001356352E50DC45EAC323DB0A45EAC1210C
:10B14000C912B6F120050DDD63FA05F6EB4086EA7B
:10B150000305124218BF45F00105C01851F1000166
:10B160000CD213E062FA06F5F2405540F3415A4022
:10B17000B340F3405A408018594107D349085FEA69
:10B1800030005FEA350528BF45F0010501F5801163
:10B19000420875F1004250F1000041EB0451F0BC4F
:10B1A0004FF4001C1CEB410F38BF70470020090D05
:10B1B000090570471CEB410F10D252EA43060BD031
:10B1C000BCEB410F05D80C0DAB43661E342EB5DD2C
:10B1D00002E0AB4380185941F0BC7047F0BC7047A7
:10B1E0002DE9F04140F2FF7581EA030C0CF0004CB0
:10B1F00015EA11541DBF15EA1357AC42AF42E9E0FE
:10B20000BC41C1F31301C3F31303801A994143F402
:10B21000801304D2641E4000494180185941C9027C
:10B2200041EA5051B1FBF3F603FB1611A2FB067580
:10B23000D7EBC020A94102D2761E80185941C9021D
:10B2400041EA5051B1FBF3FE03FB1E11A2FB0E7548
:10B25000D7EBC020A94103D2AEF1010E80185941AD
:10B26000890241EA9051760546EA8E2EB1FBF3F64B
:10B2700003FB1611A2FB0675D7EB8020A94102D271
:10B28000761E80185941C90241EA50514EEA060E15
:10B29000B1FBF3F603FB1611A2FB0675D7EBC0203A
:10B2A000A94102D2761E80185941C90241EA505183
:10B2B000B1FBF3F703FB1711A2FB0735D3EBC0205B
:10B2C000A94167F100070CBF004247F0010766F390
:10B2D000D5274FEA1E31B80814F5806414DDBD0788
:10B2E00075F1004250EB0E5051EB045111F5801FE7
:10B2F0005CBF41EA0C01BDE8F0814CF07F6141F098
:10B30000E0410020BDE8F081BD076D0840EA0E5025
:10B3100041F48011D4F10104B4F120060ADAC4F139
:10B3200020060200E04001FA06F3E1401843B24073
:10B3300015430EE0342C14DCC6F1200445EA400528
:10B340006D0820FA06F2154321FA06F0A1400D43DC
:10B35000002175F1004250F1000051EB0C01BDE8F5
:10B36000F08100205FEA0C01BDE8F081CFB99218AE
:10B370005B41B3FA83F704BFB2FA82F6BF190B3F01
:10B38000B7F120062FBF02FA06F3BB40C7F1200633
:10B3900022FA06F638BF3343BA401CB1E419641EE2
:10B3A0002FE77F4231F00041B1FA81F404BFB0FAD7
:10B3B00080F6A4190B3CB4F120062FBF00FA06F169
:10B3C000A140C4F1200620FA06F638BF3143A04060
:10B3D0003C1B16E7AC421ABF05EA1357AF4214E014
:10B3E00050EA41061CBF52EA4306BFE750EA410754
:10B3F000304661461CBF41EA0551BDE8F08152EA82
:10B40000430C08BFC143BDE8F08100204FF4001693
:10B4100016EB410F98BF16EB430F08BF16EB410F19
:10B4200024BFC14305E016EB430F0CBF61464CEA55
:10B430000551BDE8F0810000F0B44FF0004591EAFD
:10B44000030F44BF6B40FFF761BE00BF841A71EB6E
:10B45000030604D26E40001BB141121973414FF430
:10B46000001C1CEB410F34BF7CEB430684E00C0D49
:10B47000A4EB1356362E7DDC012E43DC45EAC323B4
:10B4800043EA525312BFD20292025B08240545EAF6
:10B49000C12141EA5051D2EBC020994125D407D1B6
:10B4A000B0FA80F610FA06F164D00020203608E0E9
:10B4B000B1FA81F6B140C6F1200220FA02F211433E
:10B4C000B0404FEAF474B4EB465434F001064FEA4E
:10B4D00074040AD8D6F50016760D04F00044F04046
:10B4E00061FA06F25040F1404840C00A40EA41503B
:10B4F00021F0004128BF5FEA500550F1000044EB05
:10B50000D12137E045EAC323DB0A45EAC121C90A54
:10B51000B6F120050EDD42EA0242120CC5F120060A
:10B5200003FA06F6EB4042EA06056D42984161F1E6
:10B5300000010DE062FA06F5F240554063FA06FCA0
:10B5400082EA0C02F3405A406D42904161EB0301E4
:10B5500011F4801F05D1641E620502D06D004041C8
:10B56000494121F48011430875F1004350F1000076
:10B5700041EB0451F0BC70471CEB410F15D223F096
:10B58000004352EA43060BD04FEA4C0CBCEB410F90
:10B5900004D80C0D661E342EB7DDEBE7801A9941F6
:10B5A00050EA410608BF0021E4E708BF1CEB430F47
:10B5B00028BF6FF00001DDE7010040F10780F4468D
:10B5C000404200F003F851F00041604709D0B0FA62
:10B5D00080F18840C91CC1F58461090501EBD021C7
:10B5E0004005704710B5FF2313EAD0541DBF13EA7E
:10B5F000D1529C429A4239E0A41ADA0780EA010348
:10B60000134042EA012142EA0020421A3CBF641E74
:10B6100001EB4202090AB2FBF1FE01FB1E221202FB
:10B62000B2FBF1F001FB10226EF30F201202B2FB0D
:10B63000F1FE4EEA00207F3406DDFE2C24DA53EAC8
:10B64000500050EBC45010BDD4F1020401FB1E2287
:10B6500040F08071192C1DDC21FA04F0C4F12004A3
:10B66000A140114371F10042584110BD9C421ABFE4
:10B6700003EAD1529A420FE080EA010E0EF0004335
:10B68000400004D0490016D143F0FF4010BD4900EE
:10B6900008BFD343180010BD9C4205D1D21AF7D081
:10B6A00001F00041484010BD4A0212BF0846484020
:10B6B00000F0004010BD4AB90902B1FA81F2914090
:10B6C00044B1A418C00140F000409EE7C90141F018
:10B6D000004152420002B0FA80F4A040141B94E7EB
:10B6E0004FEAF17CBCF1E04C2CBFBCF5001F11E02F
:10B6F0005FEA4C0C34BFBCF17F5F2EE05FEA9C0C2C
:10B700004FEA0C1C4FEA3C0CC10071F100414CEBBC
:10B7100050707047C90241EA5051C00218BF41F051
:10B72000010141F000414FEA6C50C0F109002128AD
:10B7300010D240EACC7CCCF1200C11FA0CF070F164
:10B740000040CCF1200C21FA0CF00CF0004C40EB46
:10B750000C0070474FEACC707047490011F5001F8C
:10B7600004D84FEACC10FF30C0057047C8177047A7
:10B770002DE9F04385B004000D0016005FF02008AD
:10B780005FEA5619CDF8008047F20003C2F20003C9
:10B790004CF20002C0F603021D2101A800F015F8CA
:10B7A000002007004F450DD2434608FB07F015EB7C
:10B7B000800208FB07F014EB800101A8FEF720FCD3
:10B7C0007F1CEFE705B0BDE8F0832DE9F0410400F0
:10B7D0000D0016001F00DDF818802580A66018FAFD
:10B7E00085F0401E82000021380000F003F86760F9
:10B7F000BDE8F081002A04D0131803F8011C521E82
:10B80000F8E770475FF0FF0C1CEAD05114BF6145A8
:10B8100006E0C110400721F0E04101F1605170479E
:10B8200079B900F0004100020AD0B0FA80FC00FAB9
:10B830000CF001F16051A1EB0C5101EBD02140055E
:10B84000704741020CBF40F4E0016FF0000100209E
:10B850007047000040000DD2010E7F390AD4D1F1AB
:10B860001F0104D4C00140F00040C84070477FF081
:10B8700000007047002070474FF0807C1CEB400FA9
:10B8800094BF1CEB410F05E040EA010C5FEA4C0C51
:10B8900001D28842704718BF81427047002800BF1C
:10B8A0000AD0B0FA80F18840D1F19D01C9050206A5
:10B8B00072F1004241EB102070470122FFF781B97D
:10C00000B9E1EEBA1222D0BA00000000F755723B37
:10C01000CF4E043C58C20B3C000000809E858EBC75
:10C0200088DC0BBD9CA308BD000000000A828A3D8D
:10C03000F0DB1B3E5F46643E0641803E5F46643E49
:10C04000F0DB1B3E0A828A3D000000009CA308BD75
:10C0500088DC0BBD9E858EBC0000008058C20B3C66
:10C06000CF4E043CF755723B000000001222D0BABC
:04C07000B9E1EEBA8A
:0400000508000B796B
:00000001FF
