:020000041FFFDC
:10AC00006804002085ADFF1FB9B1FF1F7FB1FF1F92
:10AC1000B5B1FF1F0DB0FF1F9DB8FF1F0000000062
:10AC2000000000000000000000000000ADB4FF1FA5
:10AC300011B0FF1F00000000BBB1FF1FF1B5FF1FE7
:10AC40009FADFF1F9FADFF1F9FADFF1F9FADFF1F5C
:10AC50009FADFF1F9FADFF1F9FADFF1F9FADFF1F4C
:10AC60009FADFF1F9FADFF1F9FADFF1F9FADFF1F3C
:10AC70009FADFF1F9FADFF1F9FADFF1F9FADFF1F2C
:10AC80009FADFF1F9FADFF1F9FADFF1F9FADFF1F1C
:10AC90009FADFF1F9FADFF1F9FADFF1F9FADFF1F0C
:10ACA0009FADFF1F9FADFF1F9FADFF1F9FADFF1FFC
:10ACB0009FADFF1F9FADFF1F9FADFF1F9FADFF1FEC
:10ACC0009FADFF1F9FADFF1F9FADFF1F9FADFF1FDC
:10ACD0009FADFF1F9FADFF1F9FADFF1F9FADFF1FCC
:10ACE0009FADFF1F9FADFF1F9FADFF1F0000000026
:10ACF0000000000000000000000000000000000054
:10AD0000000000009FADFF1F9FADFF1F000000006F
:10AD10009FADFF1F9FADFF1F00000000000000005F
:10AD20009FADFF1F9FADFF1F9FADFF1F9FADFF1F7B
:10AD30000000000000000000000000000000000013
:10AD40000000000000000000000000009FADFF1F99
:10AD500000000000000000009FADFF1F9FADFF1F1F
:10AD60009FADFF1F00000000000000009FADFF1F0F
:10AD7000DFF80CD000F0C4F80048004715B9FF1FF9
:10AD8000680400200648804706480047FEE7FEE7C3
:10AD9000FEE7FEE7FEE7FEE7FEE7FEE7FEE7FEE78B
:10ADA000F5B5FF1F71ADFF1F80EA010210B502F07B
:10ADB0000043400022D04A001FD0010E01EB126177
:10ADC000C0F35600C2F3560240F4000042F4000201
:10ADD000A0FB022000047F39140400D0401C50EA7C
:10ADE000124001D44000491EC2B20C0604EBD01040
:10ADF000401C4008802A02D003E0002010BD20F053
:10AE00000100002900DA0020184310BD30B480EAA8
:10AE1000010202F0004530F0004221F0004013D062
:10AE200090B1C30DD40DC2F31601C0F31600E41A9D
:10AE300041F4000140F400027D34914201D3641CCE
:10AE400000E04900002C02DA30BC002070474FF4CB
:10AE500000000023914201D3891A034340084FEABE
:10AE60004101F7D151B1914202D14FF0004105E0CB
:10AE700002D24FF0010101E06FF0010103EBC45079
:10AE8000284430BC00F005B896230022114600F09B
:10AE900009B80029A8BF7047401C490008BF20F02E
:10AEA0000100704710B4B0FA80FC00FA0CF050EAD0
:10AEB000010404BF10BC704749B1CCF1200421FA51
:10AEC00004F411FA0CF118BF012121430843A3EB4C
:10AED0000C01CB1D4FEA00614FEA102042BF002059
:10AEE00010BC704700EBC35010440029A4BF10BC35
:10AEF0007047401C490008BF20F0010010BC70479B
:10AF0000064C074D06E0E06840F0010394E80700B6
:10AF100098471034AC42F6D3FFF72EFF88B9FF1FD5
:10AF2000A8B9FF1F38B504460B4951F82400012188
:10AF300000F054F9684600F01AF9084830F8140097
:10AF4000ADF8000028208DF80300054951F82400D1
:10AF5000694600F081F838BD4C0000204800002010
:10AF60004000002010B500F055F8012000F016F860
:10AF7000022000F013F8032000F010F8012000F088
:10AF800031F8022000F02EF8032000F02BF800200A
:10AF9000FFF7C8FF0120FFF7C5FF10BD38B5044615
:10AFA0000D4951F82400012100F018F9684600F01D
:10AFB000DEF80A4830F81400ADF8000010208DF8D3
:10AFC000030002208DF80200054951F8240069466B
:10AFD00000F042F838BD00003000002028000020BA
:10AFE00018000020032800DD7047064931F81010D2
:10AFF00031B1044931F81010034A52F82020116190
:10B0000000BFF1E7280000201800002000BFFEE785
:10B010007047000010B56FF0040000F0D5FA094841
:10B020000068FFF731FF04460749FFF7EFFE0749C5
:10B030000860074905480068FFF7B6FE0549086043
:10B0400010BD0000040000200024F44A5400002039
:10B0500000007A44580000202DE9F0410246002506
:10B060000026002000230024002791F803C00CF0E4
:10B070000F0591F803C00CF0100CBCF1000F03D0C9
:10B0800091F802C04CEA050591F800C0BCF1000F30
:10B0900031D0146800202BE04FF0010C0CFA00F3C3
:10B0A000B1F800C00CEA03069E4220D183004FF0A5
:10B0B0000F0C0CFA03F7BC4305FA03FC4CEA04043A
:10B0C00091F803C0BCF1280F06D14FF0010C0CFA27
:10B0D00000FCC2F814C00AE091F803C0BCF1480FAC
:10B0E00005D14FF0010C0CFA00FCC2F810C0401C56
:10B0F0000828D1D31460B1F800C0BCF1FF0F34DDD3
:10B10000546800202EE000F1080C4FF0010808FA06
:10B110000CF3B1F800C00CEA03069E4221D1830073
:10B120004FF00F0C0CFA03F7BC4305FA03FC4CEA92
:10B13000040491F803C0BCF1280F05D100F1080CFC
:10B1400008FA0CF8C2F8148091F803C0BCF1480F5B
:10B1500007D100F1080C4FF0010808FA0CF8C2F80A
:10B160001080401C0828CED35460BDE8F0814FF613
:10B17000FF710180022181700421C170704700BFFE
:10B18000FEE7000010B50446084920680840B0F109
:10B19000005F09D1064960680860206880F308886C
:10B1A00000BF08460068804710BD00000080FF2FE8
:10B1B0000000002000BFFEE77047704729B1064A33
:10B1C000D2690243044BDA6104E0034AD269824344
:10B1D000014BDA61704700000010024029B1064AB5
:10B1E00092690243044B9A6104E0034A92698243E4
:10B1F000014B9A6170470000001002402DE9F04FAA
:10B2000000260027B4460024A046A14600220021C3
:10B2100000250023DFF858A2DAF804A00AF00C0297
:10B2200022B1042A07D0082A7ED109E0DFF844A21F
:10B23000C0F800A0A7E0DFF83CA2C0F800A0A2E0A0
:10B24000DFF82CA2DAF804A00AF48035DFF820A297
:10B25000DAF82CA00AF00046B6F1004F4FD1DFF823
:10B2600010A2DAF82CA00AF47F47DFF804A2DAF87B
:10B270002CA00AF0F00CDFF8F8A1DAF82CA00AF004
:10B28000070400BF062C16D2DFE804F00306090C01
:10B290000F124FF0010911E04FF002090EE04FF0DC
:10B2A00004090BE04FF0080908E04FF0100905E031
:10B2B0004FF0200902E04FF0010900BF00BF00BFBE
:10B2C00015B9DFF8B4810DE0DFF8A4A1DAF804A025
:10B2D0000AF4003ABAF1000F02D0DFF89C8101E0D5
:10B2E000DFF890814FEA172A0AFB08FA4FEA1C1B85
:10B2F0000BFB09FBBAFBFBFAC0F800A03DE0DFF84E
:10B3000070A1DAF804A0DFF874B10AEA0B0101F0C9
:10B31000C04ABAF1000F08D101F4701ABAF5701FD3
:10B3200003D04FF0020A02E028E04FF0010A01F0DA
:10B33000C04BC1F3834E4EEA5B6B0AEB0B0135B990
:10B34000DFF834A101FB0AFAC0F800A015E0DFF82D
:10B3500020A1DAF804A00AF4003ABAF1000F06D0EE
:10B36000DFF814A101FB0AFAC0F800A005E0DFF83D
:10B3700004A101FB0AFAC0F800A004E0DFF8F4A081
:10B38000C0F800A000BF00BFDFF8E4A0DAF804A016
:10B39000CAF30212DFF8D8A0DAF804A00AF0800A93
:10B3A000BAF1000F04D0DFF8D8A01AF802A001E02B
:10B3B0004FF0000A5346D0F800A02AFA03FAC0F86A
:10B3C00004A0DFF8ACA0DAF804A0CAF30122DFF889
:10B3D000A0A0DAF804A00AF4806ABAF1000F04D041
:10B3E000DFF89CA01AF802A001E04FF0000A5346D3
:10B3F000D0F804A02AFA03FAC0F808A0DFF870A079
:10B40000DAF804A0CAF3C122DFF864A0DAF804A0D5
:10B410000AF4005ABAF1000F04D0DFF864A01AF859
:10B4200002A001E04FF0000A5346D0F804A02AFA27
:10B4300003FAC0F80CA0DFF838A0DAF804A0CAF3C9
:10B440008132DFF82CA0DAF804A00AF0805ABAF1B1
:10B45000000F01D042F00402DFF828A01AF80230F1
:10B46000D0F80CA0BAFBF3FAC0F810A0BDE8F08F3A
:10B470000010024000127A0000093D0000003C600C
:10B4800078B9FF1F80B9FF1F012806D10649496D11
:10B4900041F03001044A516505E00349496D21F04E
:10B4A0003001014A5165704700100240704710B5E5
:10B4B00000F002F810BD00001CB5002001900090C3
:10B4C0003D48006840F480303B49086000BF3A487E
:10B4D000006800F4003000900198401C0190009832
:10B4E00018B90198B0F5405FF1D13348006800F415
:10B4F000003010B10120009001E000200090009881
:10B50000012857D12D48006840F010002B490860F1
:10B510000846006820F0070008600846006840F010
:10B520000400086024484068234948600846406891
:10B5300020F4605048600846406840F4005048607D
:10B540000846406820F4E06048600846406840F4DF
:10B5500080604860084640681949084016494860BC
:10B560000846406817490843134948600846006880
:10B5700040F08070086000BF0F48006800F0007065
:10B580000028F9D00120FFF77FFF0B48406820F02A
:10B590000300094948600846406840F002004860DE
:10B5A00000BF0548406800F00C000828F9D10020D1
:10B5B000FFF76AFF1CBD000000100240002002409F
:10B5C000FFFFC01F00000520042808D14FF0E02134
:10B5D000096941F004014FF0E022116107E04FF0EA
:10B5E000E021096921F004014FF0E0221161704768
:10B5F0007047000010B501210807FFF7DFFD1D4867
:10B60000007840F004001B49503981F850000021B7
:10B610004FF08050FFF7D2FD1748006840F001005E
:10B6200015490860084640681449084012494860B6
:10B6300008460068124908400F490860084600683B
:10B6400020F480200860084640680E4908400A49F6
:10B6500048600846006B0C490840074908634FF4EE
:10B660001F008860FFF723FF4FF000600749086064
:10B6700010BD000050700040001002400C00FFE8B8
:10B68000FFFFF6FEFFFF001700FFFEFE08ED00E0E3
:10B6900010B586B0044601210420FFF79FFD01216B
:10B6A0008803FFF79BFD05A8FFF761FD4FF40070CD
:10B6B000ADF8140002208DF8160018208DF8170040
:10B6C00005A91748FFF7C8FC4FF48060ADF81400D7
:10B6D00028208DF8170005A91148FFF7BDFC01A827
:10B6E00000F0D0F801940020ADF80800ADF80A0091
:10B6F000ADF80C00ADF810000C20ADF80E0001A95B
:10B70000084800F04FF8012240F22551054800F0AA
:10B7100024F80121034800F007F806B010BD00002E
:10B72000000801400038014021B1828942F40052F2
:10B73000828104E082894DF6FF731A40828170474E
:10B7400002460020B1F5007F00D100BF13880B40F6
:10B750000BB1012000E000207047F0B50346002443
:10B7600000260025002040F66A17B94200D100BF2C
:10B770001846C1F3421401F01F06012707FA06F527
:10B78000012C01D10C3004E0022C01D1103000E07A
:10B7900014301AB107682F43076002E00768AF430F
:10B7A0000760F0BD2DE9F04786B005460E4600243F
:10B7B000A24600BFA1460027B08900B100BF2F46B6
:10B7C0002C8A4CF6FF700440F08804432C82AC892C
:10B7D0004EF6F3100440B08831890843718908435C
:10B7E0000443AC81AC8A4FF6FF400440B089044367
:10B7F000AC8201A8FFF702FD1F48874202D1DDF8A5
:10B8000010A001E0DDF80CA0A88900F4004040B1D0
:10B810000AEBCA0000EB0A1031684900B0FBF1F8EE
:10B8200007E00AEBCA0000EB0A1031688900B0FBA0
:10B83000F1F86420B8FBF0F004012009642101FB59
:10B840001089A88900F4004040B1322000EBC90003
:10B85000B0FBF1F000F00700044308E0322000EBF9
:10B8600009106421B0FBF1F000F00F0004432C81BB
:10B8700006B0BDE8F087000000380140C1F30802BF
:10B88000828070474FF41651016000218180C18091
:10B8900001810C21418100218181704700BFFEE7B9
:10B8A000014A024900F013B8F1B8FF1F6000002000
:10B8B00002E008C8121F08C1002AFAD17047704779
:10B8C000002001E001C1121F002AFBD170472DE9C1
:10B8D000F04116460F460446002503E03946B047BE
:10B8E000641C6D1C20780028F8D12846BDE8F08142
:10B8F00070B504460D46A1B20548FFF7BFFF00BF73
:10B9000040210348FFF71CFF0028F9D0204670BDF6
:10B9100000380140FFF726FB4FF4E130FFF7B8FE97
:10B9200005A0FFF7BDFF10A0FFF7BAFF4FF00060C2
:10B93000FFF728FC00BFFEE753797374656D206D37
:10B94000656D6F727920617320757365722D646502
:10B9500066696E6564204941502069662072756E83
:10B960006E696E672E0D0A004A756D7020746F2027
:10B970004150502E0D0A0000010203040607080979
:10B9800002040608020C0810A8B9FF1F00000020DE
:10B9900064000000B0B8FF1F0CBAFF1F6400002055
:10B9A00004040000C0B8FF1F000000000044950818
:10B9B000000000000000000001020304060708095F
:10B9C0000000000000100140001001400010014084
:10B9D000000004000800200000000000100000002B
:10B9E000100000001000000000080140001001409D
:10B9F0000100002004000000100000000000000012
:0CBA000000000000010000000000000039
:040000051FFFAD71BB
:00000001FF
